:100000000C9437020C94362D0C947E020C947E02D4
:100010000C947E020C947E020C947E020C947E0260
:100020000C947E020C947E020C947C270C9438274E
:100030000C9477280C947E020C947E020C947E0221
:100040000C947E020C947E020C947E020C947E0230
:100050000C947E020C9453280C947E020C947E0225
:100060000C947E020C947E020C947E020C947E0210
:100070000C947E020C947E020C947E020C947E0200
:100080000C947E020C947E020C947E020C947E02F0
:100090000C947E020C947E020C947E020C947E02E0
:1000A0000C947E020C947E020C947E0214001A00C2
:1000B00008001500170004681664076209610A0049
:1000C0001D001B74060019000500000000002B41F4
:1000D0002A422900130012000C0018001C0033787B
:1000E0000F640E720D710B0038003774360010006B
:1000F00011000000000028412C434C001E001F008E
:10010000200021002200E300E200E100E000000006
:100110000000E600000000000000000000000000F9
:100120004C00000027002600250024002300390091
:100130004F0052005100500049004D004B004E004E
:100140004A00000000000000290000003A003B00C7
:100150003C003D003E00E300E200E100E000000062
:100160001D011B01060119011C0100000000000017
:100170000000000043004200410040003F0000003A
:10018000F000ED00EE00EF000000FC00F900FA00C6
:10019000FB0000000000F200F10000002F0230021E
:1001A0002F0030003500340034022D002D023502BE
:1001B000310031022E022E0000000000000000007D
:1001C0000000000045004400000000000000E300C3
:1001D000E200E100E00000000000E6000000000096
:1001E000000000000000000000000000000101010C
:1001F00001010101010102020202020202020203E4
:1002000003030303030303040404040404040505B3
:100210000505050606060606070707070708080876
:1002200008090909090A0A0A0B0B0B0C0C0C0D0D25
:100230000D0E0E0E0F0F0F101011111112121313BD
:100240001414151516161717181819191A1A1B1B36
:100250001C1D1D1E1E1F2020212222232424252692
:1002600026272829292A2B2C2D2D2E2F30313232CA
:10027000333435363738393A3B3C3D3E3F404142D6
:10028000434445464748494A4C4D4E4F50515354BC
:10029000555658595A5B5D5E5F6162646566686970
:1002A0006B6C6D6F7072737577787A7B7D7E8082F0
:1002B000838587888A8C8E8F91939596989A9C9E39
:1002C000A0A2A3A5A7A9ABADAFB1B3B5B7BABCBE49
:1002D000C0C2C4C6C9CBCDCFD1D4D6D8DBDDDFE216
:1002E000E4E7E9EBEEF0F3F5F8FAFDFF05010902AA
:1002F000A10185020901A1000509190129081500BC
:100300002501950875018102050109300931158122
:10031000257F95027508810609381581257F95018D
:1003200075088106050C0A38021581257F9501752F
:10033000088106C0C005010980A101850319012AB1
:10034000B700150126B700950175108100C0050C96
:100350000901A101850419012AA002150126A002A4
:10036000950175108100C005010906A101850505EB
:100370000719E029E7150025019508750181020597
:1003800007190029EF1500250195F0750181020577
:1003900008190129059505750191029501750391CB
:1003A00001C005010906A101050719E029E71500AB
:1003B00025019508750181029501750881010507E0
:1003C000190029FF150026FF009506750881000514
:1003D000081901290595057501910295017503918B
:1003E00001C009023B00020100A0FA09040000015B
:1003F00003010100092111010001224000070581CC
:100400000308000109040100010300000009211193
:1004100001000122B600070582032000011201003D
:100420000200000008F8A8301801000102000112C3
:100430000353006B0065006C006500740079006C6C
:100440000000002403420061007300740061007228
:1004500000640020004B006500790062006F0061BD
:1004600000720064007300000004030904001124FA
:100470001FBECFEFDAE0DEBFCDBF04B603FE27C05C
:1004800080911A0490911B04A0911C04B0911D044A
:100490008730904BA740B04BD1F410921A041092C1
:1004A0001B0410921C0410921D0414BE84B7877F95
:1004B00084BF0FB6F894A8958091600088618093FE
:1004C0006000109260000FBEE0E0F8E3099524E0C0
:1004D000A8E2B2E001C01D92AA31B207E1F712E032
:1004E000A0E0B1E0E6EAF0E602C005900D92A83285
:1004F000B107D9F70E949E280C9405300C94000097
:10050000843028E6920731F08333984719F088EC5D
:1005100090E008958CE291E00895FC01AC014C5FFD
:100520005F4F8FEF91E32191822728E030E087FF32
:1005300009C0880F892721503109C9F7E417F50749
:1005400091F70895880FF7CF9091EB03937051F0D6
:10055000811109C094609093EB031092440181E0F3
:100560008093E6030895883210F09C69F4CF880FD9
:10057000880F982BF0CF9091EB03937061F08093EC
:10058000EC036093ED03433308F042E34093EE0342
:1005900081E08093E6030895E8EDF0E080818E7FAE
:1005A00080831092E2001092DA001092E100A0EE37
:1005B000B0E08C9181608C9380818F77808319BCAF
:1005C000A7EDB0E08C918E7F8C9380818F7E8083AD
:1005D0001092B70308952091E4003091E50095E66C
:1005E000A9012091EC00822F817020FF06C080912C
:1005F000E80080FF06C080E008952091E80022FD19
:100600001AC08091DC03882389F0853089F08091BD
:10061000EB0085FD0FC02091E4003091E50042170A
:100620005307F9F29150E1F684E0089582E00895CD
:1006300083E0089581E00895EF92FF920F931F9356
:10064000CF937C018B010E94EB02C82F811117C050
:100650008091E80085FD0BC08091E8008E77809343
:10066000E8000E94EB02882399F3C82F08C0F70125
:1006700081917F018093F1000150110949F78C2F7E
:10068000CF911F910F91FF90EF9008958091DE031D
:1006900087FF13C08091E80082FF06C08091E800C8
:1006A0008B778093E80004C08091DC038111F2CF46
:1006B00008958091DC038823D9F38091E80080FFBE
:1006C000F8CF8091E8008E77ECCF982F9093E900D7
:1006D000242F762F50E0891731F07091EC00209193
:1006E000ED005091F00021FD07C09F5F973071F73A
:1006F0008093E90081E008953091EB003E7F3093D4
:10070000EB003091ED003D7F3093ED003091EB0038
:1007100031603093EB007093EC002093ED00509328
:10072000F0002091EE0027FDE0CF80E00895CF9209
:10073000DF92EF92FF920F931F93CF93DF93C8ED59
:10074000D0E088818F7E8883E7EDF0E08081816052
:10075000808384E082BF81E08093B70388818E7FAD
:10076000888302EE10E0F80110821092DA0081EE28
:10077000C82ED12CF601108288818F7788838881DA
:100780008068888388818F7D888319BC1092DC0300
:100790001092DD031092DB031092DA0390EEE92E43
:1007A000F12CF70180818B7F808388818160888331
:1007B00042E060E080E00E946503F60180818E7F68
:1007C0008083F8018081816080838081886080835C
:1007D000F70180818E7F8083888180618883DF91AB
:1007E000CF911F910F91FF90EF90DF90CF900895E0
:1007F000FC018091E4039091E50386179707A0F030
:100800006115710529F49091E8009E779093E800B6
:1008100090E06115710551F4911108C08091E800D4
:1008200082FF34C080E00895BC01F2CF8091DC03E8
:100830008823C1F18530C1F18091E80083FD30C08B
:100840008091E80082FDEACF8091E80080FFE1CF4F
:100850008091F3002091F200382F6115710519F095
:100860002830310558F091E02830310509F090E04A
:100870002091E8002E772093E800CBCF81918093E0
:10088000F100615071092F5F3F4FE7CF8091DC038A
:10089000882341F0853041F08091E80083FFBECF8E
:1008A00081E0089582E0089583E008958091B9037E
:1008B00008959C014FB7F8948091AE039091AF03D7
:1008C000A091B003B091B1034FBF821B930B089569
:1008D0002FB7F8946091AE037091AF038091B0038D
:1008E0009091B1032FBF08952FB7F8948091AE0374
:1008F0009091AF03A091B003B091B1032FBF0895C1
:10090000209143012223C9F02091B20327FF15C093
:10091000E62FE695E695E695EE31D8F4E80FF92F47
:10092000F11D677021E030E001C0220F6A95EAF7FF
:1009300020958281282322830895FC01329608960F
:100940002191621303C0DF0111971C92E817F90788
:10095000B9F70895209143012223C1F02091B203F9
:1009600027FF14C0E62FE695E695E695EE31F8F4FC
:10097000E80FF92FF11D677021E030E001C0220F70
:100980006A95EAF78281822B82830895FC01329670
:100990002FEF30E04191641751F02F3F19F44111CE
:1009A00001C0232F3F5F3630A9F72F3F09F4089588
:1009B000820F911D27FD9A95FC0162830895209175
:1009C000A7033091A8032817390771F09093A80363
:1009D0008093A703E091A503F091A603309721F03F
:1009E0000084F185E02D099408952091A3033091AE
:1009F000A4032817390771F09093A4038093A303ED
:100A0000E091A503F091A603309721F00680F781CD
:100A1000E02D09940895FA01811101C0FB010994A8
:100A2000FC01EE0FFF1FE80FF91FEC5CFC4F618328
:100A3000408322830895EBEEF3E0248130E1231B11
:100A400008F420E0248381E08093E6030895EBEE30
:100A5000F3E0248130E1230F08F42FEF248381E0B9
:100A60008093E6030895EBEEF3E0438120E1421B1F
:100A700008F440E08181628190E00C94BB02EBEECF
:100A8000F3E0438120E1420F08F44FEF818162815E
:100A900090E00C94BB02EBEEF3E0628120E1621B7C
:100AA00008F460E08181438190E00C94BB02EBEE9E
:100AB000F3E0628120E1620F08F46FEF81814381EE
:100AC00090E00C94BB02EBEEF3E081814381628104
:100AD0008850990B0C94BB02EBEEF3E0818190E01F
:100AE0004381628108960C94BB028091EB0386954A
:100AF0008695815009F487E20C94A4028091EB035F
:100B0000869586958F5F883208F081E00C94A40268
:100B1000809342018091EB038370809341010E9496
:100B2000EB1083E0809344010895EF92FF920F93BE
:100B30009701201B31092F3F310519F010F02FEFDD
:100B400030E02095382F320F08F43FEF832F0F91BC
:100B5000FF90EF900895EF92FF920F939701201B63
:100B600031092F3F310519F010F02FEF30E0322F0F
:100B70003095482F430F08F44FEF842F620F0F91E9
:100B8000FF90EF900895EF92FF920F93972F093403
:100B900038F4B701601B71096F3F710519F010F04F
:100BA0006FEF70E0485F5F4F4131510540F0A901A0
:100BB000485F5F4F4131510510F06FEF70E0609575
:100BC000482F460F08F44FEF842F37FF02C02D5FE8
:100BD0003F4F35952795359527956091EC03620F2A
:100BE000792F0F91FF90EF900895EF92FF920F935E
:100BF0001F930E0D1F2D111DF90137FF03C0F19535
:100C0000E195F10924E0EE0FFF1F2A95E1F7EF3F90
:100C1000F10519F014F0EFEFF0E09A0157FF03C06F
:100C200031952195310994E0220F331F9A95E1F710
:100C30002E173F070CF4F901E00FF11FEF3FF1050C
:100C400019F010F0EFEFF0E0E095282F3E2F230F82
:100C500008F42FEF822F1F910F91FF90EF900895CE
:100C6000EF92FF920F93970195E0099F200D311DA0
:100C700011242F3F310519F010F02FEF30E02095AF
:100C8000382F320F08F43FEF832F0F91FF90EF9032
:100C9000089522E8241B08F420E0620F089540958F
:100CA000282F429F412D1124842F0895E42FF0E036
:100CB000EE0FFF1FE554FE4F9081921B97FD91951B
:100CC000292F38E1239F212D1124620F08950F93BE
:100CD0001F9310E0F801EE0FFF1FE554FE4F9081C7
:100CE000905797FD9195000F111FF801ED56FE4F9B
:100CF00001A50052110B2003F001219FF00D1124DA
:100D000008E310E0091B110997FD139540039001BA
:100D1000419F300D1124E20FF31F9F01220F331F5B
:100D20002E0F3F1F37FF02C021583F4F220F232FA6
:100D3000221F330B620F1F910F9108950F931F9382
:100D4000522F10E0F801EE0FFF1FED56FE4FA1A548
:100D5000A052BB0B9D015203F001539FF00D1124D3
:100D6000000F111FD801A554BE4F0C910057110B55
:100D700040039001419F300D11242E0F3F1F37FF7C
:100D800002C0215C3F4F96E0359527959A95E1F793
:100D9000620F1F910F9108950F931F93522F10E030
:100DA000F801EE0FFF1FED56FE4FA1A5A052BB0BA1
:100DB0009D015203F001539FF00D1124000F111FEC
:100DC000D801A554BE4F0C910057110B4003900160
:100DD000419F300D11242E0F3F1F37FF02C02158B5
:100DE0003F4F220F232F221F330B620F1F910F91B2
:100DF0000895EF920F93972F23E0029FB0011124E3
:100E0000759567956E0D792F0F91EF900895322F9C
:100E100050E0FA01EE0FFF1FED56FE4F91A59052E4
:100E200097FD9195440F551FFA01E554FE4F20811F
:100E3000231B330B290F311D97FD3A95620F08953F
:100E4000E42FF0E0EE0FFF1FED56FE4F61A5621B91
:100E50000895E42FF0E0EE0FFF1FE554FE4F608190
:100E6000621B0895622F0895E42FF0E0EE0FFF1F3C
:100E7000E554FE4F408134EE439F412D1124E82F6D
:100E8000F0E050E0445E5F4FDA01A21BB1099D0122
:100E9000B7FF03C031952195310993E0220F331F2D
:100EA0009A95E1F7AF01421B530B9A0157FD20E0E1
:100EB000582F259F212D1124822F0895E42FF0E033
:100EC000EE0FFF1FE554FE4F408134EE439F412D4E
:100ED0001124E72FF0E050E0445E5F4FDA01A21BDF
:100EE000B1099D01B7FF03C031952195310993E008
:100EF000220F331F9A95E1F7AF01421B530B9A0162
:100F000057FD20E0279F212D1124722F0895FC0109
:100F10009B01009729F480E077FF2BC080E80895BB
:100F2000AC0197FF04C044275527481B590BB90152
:100F3000640F751F37FD10C0241B350BC901A5E0D8
:100F4000880F991FAA95E1F70E94C42E80E2861BA4
:100F5000F7FF0FC081950895CB0165E0880F991FB9
:100F60006A95E1F7BA01621B730B0E94C42E80E6FA
:100F7000EECF0895EF920F93CF93DF93D72FC82F23
:100F8000C9010E19BA010E948707602F681B7D2FC7
:100F90008C2FDF91CF910F91EF9008950F93CF9306
:100FA000DF93D72FC82FC901BA010E948707682F86
:100FB000600F7D2F8C2FDF91CF910F910895EF92CD
:100FC0000F931F93CF93DF93D62FC72F182FC901ED
:100FD0000E19010FBA010E948707081B202F219FBD
:100FE000212D1124822F6D2F7C2FDF91CF911F9106
:100FF0000F91EF900895EF920F931F93CF93DF938C
:10100000D62F172FC82FC9010E19070FBA010E943A
:101010008707702F781B719F712D11246D2F8C2FD6
:10102000DF91CF911F910F91EF9008950F931F9330
:10103000CF93DF93D62FC72F182FC901212F201B45
:10104000022FBA010E948707982F990F990F891BC9
:10105000800F282F219F212D1124822F6D2F7C2F6F
:10106000DF91CF911F910F9108950F931F93CF930D
:10107000DF93D62F172FC82FC901272F201B022F30
:10108000BA010E948707982F990F990F782F791B23
:10109000700F719F712D11246D2F8C2FDF91CF91C7
:1010A0001F910F910895E82F86FDE0952E2F2F7048
:1010B00086FD2F5FE695E695E695E670F0E0E5574C
:1010C000FE4F9181929F902D212D112492959F701A
:1010D0002295207F922B2081920F87FD919580E8A9
:1010E000890F08950F931F93CF93DF938B01D82F10
:1010F000C42F822F0E945308EC2FF0E0EE0FFF1F49
:10110000E554FE4F90819058890F87FD8195880F97
:10111000682F2CE0629F612D1124600F712F8D2F9D
:10112000DF91CF911F910F910895AC01823091050D
:1011300008F408959FEF413E8EE1580740F49A016C
:1011400095E0369527959A95E1F798E0920F61E042
:10115000E62FE90FFF27FF1F9F0135952795822F67
:10116000229FF001239FF00DF00D11244E175F0711
:1011700038F49FEF920F961758F78FEF860F089568
:101180002F3FE9F361E0620FF6CF0F93CF93DF9328
:10119000D72FC82F47FD419588E390E0841B910924
:1011A00047FD9395889FB001899F700D700D1124A4
:1011B000229FC001239F900D900D1124860F971F31
:1011C0000E949508982F990F890F682F600F7D2F27
:1011D0008C2FDF91CF910F91089530E020E0869F12
:1011E000212D969F200D311D1124C9010895AF9224
:1011F000BF92CF92DF92FF920F931F93CF93DF9313
:10120000362F472FE82FF0E0E451FE4F71110FC049
:10121000E4918E2F2E2F6E2F722FDF91CF911F9181
:101220000F91FF90DF90CF90BF90AF900895C72FA0
:10123000D0E02491F22E022F10E056E0659FC0010D
:101240001124EFEFF0E0BF010E94B02E832F90E059
:10125000880F991F35E5369FD001379FB00D1124B7
:101260008A1B9B0B982F990F980F6F01CC1ADD0AE0
:10127000C09ED001C19EB00DD09EB00D11248B2F09
:10128000499FA0011124452F55276F01C41AD50A83
:10129000C09EA001C19E500DD09E500D11245F0133
:1012A000A91AB108AC9E6001AD9ED00CBC9ED00CBA
:1012B0001124CD2CDD24EC19FD09E09FE001E19F14
:1012C000D00DF09FD00D1124ED2F62307105A1F0EB
:1012D00050F46115710509F49ECF6130710581F0FC
:1012E000EB2F852F98CF6430710569F080F0663060
:1012F000710509F490CFF4CFE22F2B2F8D2F8BCFD8
:10130000E22F252F88CFEB2F822F2D2F84CF2B2F4D
:101310008F2DE52F80CF0E9474049C0190913003A3
:1013200080913103982B21F030932D0320932C03CF
:101330009091320380913303982B21F030932B034B
:1013400020932A03E091A503F091A603309749F07A
:1013500082E080932E030480F581E02D8EE293E0FD
:1013600009940895409130038D3E59F480913103E2
:1013700087FF0DC01092310341110BC0109228035A
:1013800008C08E3E81F48091310318169CF34423EB
:1013900081F08091320390913303892B09F05AC078
:1013A0001092270308958F3E49F447FFF0CF109223
:1013B0003003809131038111ECCFE0CF803F19F4ED
:1013C0001416ACF3E4CF90913203893F29F4191637
:1013D000F4F610923203DBCF8A3F19F497FFD7CF90
:1013E000F8CF909133038B3F29F497FFD0CF109221
:1013F0003303CDCF8C3F19F41916CCF3C8CF9FE03F
:10140000980F983090F4815F990B21E030E0B9019A
:1014100002C0660F771F8A95E2F7CB018095909105
:101420002F03892380932F03B2CF8D3F31F4809116
:1014300029038E7F80932903AACF8E3F21F48091C8
:1014400029038D7FF7CF8F3F09F0A1CF809129032A
:101450008B7FF0CF08958091290380FD16C081FD18
:1014600016C082FD16C0809127038823A1F0883220
:1014700080F428E0829FC001112468E270E00E949D
:10148000C42E862F672B39F0089582E0089584E0FA
:10149000089588E0089581E008958091290380FDF2
:1014A00017C081FD17C082FD17C020912803222399
:1014B000A9F08EE12034A0F4289F9001112486E049
:1014C000359527958A95E1F7822F232B51F00895C2
:1014D00087E008958FE008958EE1089585E00895EE
:1014E000089581E008958D3E31F40E944D0A819562
:1014F0008093310308958E3E19F40E944D0AF8CF6F
:101500008F3E31F40E944D0A8195809330030895F7
:10151000803F19F40E944D0AF8CF893F29F40E94B8
:101520002B0A8093320308958A3F21F40E942B0AEC
:101530008195F7CF8B3F31F40E942B0A81958093E0
:10154000330308958C3F19F40E942B0AF8CF9FE0D3
:10155000980F983070F4815F990B21E030E001C062
:10156000220F8A95EAF780912F03822B80932F0315
:1015700008958D3F31F48091290381608093290380
:1015800008958E3F21F4809129038260F7CF8F3F29
:10159000B9F7809129038460F1CF80E008957894B1
:1015A0000895F894E82FE295EF70F0E031A1282F2C
:1015B0002F7081E090E001C0880F2A95EAF7982FFC
:1015C0009095932391A392A1892B82A30C94CF0A87
:1015D0009091B20392FF06C0282F28712830F9F4A9
:1015E000877F846093FF06C0282F28712831F1F48B
:1015F000877E84612091B30320FF06C0382F3871A5
:101600003830D9F4877F816021FF06C0282F2871E8
:101610002831D1F4877E816194FD877E0895282F3B
:1016200024712430F9F68B7F8860DCCF282F247159
:10163000243101F78B7E8861DDCF382F3171313055
:1016400019F78E7F8860E0CF282F2171213121F793
:101650008E7E8861E1CFCF93DF93EC0182389105D4
:10166000A9F1D8F58133910509F496C048F589327E
:10167000910509F48AC08A9709F495C0C11521E53E
:10168000D20708F0BCC0C11530E5D30708F014C17B
:10169000C83ED10508F09CC0C03ED10560F5C83AEF
:1016A000D10508F087C0C53AD10508F0FDC0C130AA
:1016B000D10509F12097F9F0C430D105E0F440C01C
:1016C0008533910509F45AC0C997C1F68091B203D8
:1016D000837089F0C0EED0E00EC0833E910599F191
:1016E00070F4803E910501F1823E910539F68091BA
:1016F000B20382FD21C0CE01DF91CF910895863ED5
:10170000910561F1873E910571F1843E910509F0E3
:10171000B5CF8091B30381FFEECF8091B203C7EEC6
:10172000D0E084FD0DC0E7CF8091B20380FD12C1EF
:101730009091B30390FFDFCFC3EED0E084FFDBCF07
:10174000D0E0C0E0D8CF8091B20382FD06C1909175
:10175000B30390FDBFCF84FFCECFF2CF8091B20311
:1017600083FDDDCFC8CF8091B20383FDF9C0909196
:10177000B30391FFF0CFC4EED0E0BDCF8091B203B0
:1017800085FFB9CFC9E2D0E0B6CF8091B20385FF23
:10179000B2CFC5E3D0E0AFCF8091B20386FFABCF2D
:1017A000CAE2D0E0A8CF8091B20386FFA4CFC1E304
:1017B000D0E0A1CFCF3BD10518F6C85AD0E0CC0F6E
:1017C000DD1FC25BDE4F0990D881C02DD46493CF5A
:1017D000C11540E2D40758F4C11581E0D80708F0DC
:1017E0008ACFCD3ED10508F4ABCFD06584CFC115EB
:1017F00090E4D90708F4A4CFDF70D06A7CCFC1157C
:1018000025E5D20700F5C11534E5D30708F08AC0F5
:10181000C11543E5D40708F071C0C11582E5D807AA
:1018200008F467C0CE018370992721E030E002C040
:10183000220F331F8A95E2F7C695C69580E2C89FAE
:10184000E001112452C0C11599E5D907A8F4C115CA
:1018500028E5D20708F06BC0C11536E5D30708F0BC
:101860006FCF8C2F0E94E80AC82FD0E0DC2FCC2746
:10187000CC27DF71D0623FCFC1154AE5D40708F409
:101880005BC0CE0190568115904208F059CF8D2F44
:101890008F710E94E80A90E0982F882788279F710F
:1018A0009C012C2BE901E6CFC55AD0E0C55BDE4F89
:1018B000C881D0E0D0641FCFCE01E4E09695879533
:1018C000EA95E1F783702C2F26952695237040E248
:1018D000249F90011124382B8C2F8370C1E0D0E01D
:1018E00002C0CC0FDD1F8A95E2F7C22BD32BDC6838
:1018F00002CFDC2FCC27C16FD06AFDCECE01837022
:10190000992721E030E002C0220F331F8A95E2F7C9
:10191000C695C69590E2C99FE0011124C22BD32B36
:10192000DA68E9CEDC2FCC27C46FD06AE4CEDC2F96
:10193000CC27C06FD06ADFCE8C2F8F700E94E80A50
:1019400034E0D695C7953A95E1F7CF709C2FEC011E
:10195000D069D1CEC9E3D0E0CECEC2EED0E0CBCEBE
:10196000C6EED0E0C8CE8091A10281111092A102F2
:1019700008958091A00290919F02892B90919E02E0
:10198000892B80932A029091A1029923A1F0892B9F
:1019900080932A0280914301882341F18091B20310
:1019A00087FF24C08EE1ECE2F2E090E0815000F588
:1019B00091110E94B30CE091A503F091A60330971A
:1019C000E1F080914301882359F08091B20387FFB1
:1019D00007C080912A0280932B0285E080932A021F
:1019E0000280F381E02D8AE292E0099486E0DBCF69
:1019F00021912223D9F29F5FD9CF089520919C0293
:101A000090916B0256E0291302C080E0089530E007
:101A1000529FF001539FF00D1124E459FD4F718145
:101A2000761306C07081781303C07281741304C0EA
:101A30002F5F3F4F2770E7CF81E00895452B39F0A6
:101A4000682381E06F3F09F080E08170089581E0B4
:101A5000FCCF80919C0290916B02981301C0089575
:101A60008F5F8770FACFAF92BF92CF92DF92EF92E3
:101A7000FF920F931F93CF93DF93C090D902D09022
:101A8000DA02E090DB02F090DC024091A202509179
:101A9000A3026091A4027091A502C42AD52AE62A65
:101AA000F72ACFE1D0E0082F10E025E0929F000D4B
:101AB000111D112498E2A92EBC2ED701C6010C2EAF
:101AC00004C0B695A795979587950A94D2F780FD9F
:101AD0000FC0219788F7B12C8B2DDF91CF911F91EB
:101AE0000F91FF90EF90DF90CF90BF90AF9008954F
:101AF000AC9EF001AD9EF00D1124E00FF11FEE0F32
:101B0000FF1FE455FF4F859194910E942B0B019785
:101B100001F3E2CFCF93DF93EC010E94330DEC2F62
:101B2000F0E095E0D99FE00DF11D112498E2899F26
:101B3000E00DF11D1124EE0FFF1FE455FF4F8591BD
:101B40009491DF91CF910C942B0BE92FEE0FEE0FB8
:101B50009E0F890F982F977086958695869525E01C
:101B6000829FF0011124E45BFD4F50E040E080E0F3
:101B7000219130E0092E02C0369527950A94E2F7AC
:101B800021703327042E01C0220F0A94EAF7822B1A
:101B90004F5F5F4F4530510559F70895E92FEE0F1C
:101BA000EE0F9E0F890F982F977041E001C0440FF0
:101BB0009A95EAF786958695869595E0899FF00136
:101BC0001124E45BFD4F30E020E070E05191DF0133
:101BD0001197CB01022E02C0969587950A94E2F7E1
:101BE000817081958527842385278C932F5F3F4FB4
:101BF0002530310559F70895FC01808191810E94BB
:101C00008A0D292F2F7092959F7092509E3078F4F4
:101C1000E92FF0E0E95FFF4C0C94D82E803F19F0DB
:101C200020F4883E20F481E00895843FE1F380E0D1
:101C30000895883EC0F3813FD1F7F5CF822F869576
:101C400086958695089590E080E00E94F50490E0E6
:101C500080E00E94DF0410929F0210929E020E9478
:101C6000B90C86E0EEE2F3E0DF011D928A95E9F718
:101C70001092280310922703109229030C948B09C9
:101C80006093D9027093DA028093DB029093DC02B6
:101C90000C94230E0F931F9341E050E060E070E03E
:101CA00004C0440F551F661F771F8A95D2F7CB01DA
:101CB000BA0160957095809590950091D902109128
:101CC000DA022091DB023091DC026023712382234F
:101CD00093231F910F910C94400E90919D0280953B
:101CE000892380939D02282F277039F4282F082EEE
:101CF000000C330B9217130621F49091B30392FF5B
:101D000007C08595859585950E944A0E10929D0283
:101D100008950F931F9341E050E060E070E004C02D
:101D2000440F551F661F771F8A95D2F78091D902FD
:101D30009091DA02A091DB02B091DC028A019B0152
:101D4000082B192B2A2B3B2BC901B8011F910F918E
:101D50000C94400E6093A2027093A3028093A4029D
:101D60009093A5020C94230E882341F080959091C6
:101D7000A00289238093A0020C94B90C08958823B3
:101D800039F09091A002982B9093A0020C94B90C7A
:101D900008958823B1F19CEF980F913A38F4682F99
:101DA0008AE292E00E9480040C94B90C90E2980FB1
:101DB000983088F4877021E030E0A90102C0440F18
:101DC000551F8A95E2F7CA0180959091A002892358
:101DD0008093A002E9CF9BE5980F933020F490E028
:101DE00080E00C94F50498E5980F973120F490E08A
:101DF00080E00C94DF048D3E20F00E94B2090C9428
:101E00008B090895CF93C82F882309F46FC08CEFF6
:101E10008C0F813AC0F580914301882311F18091A4
:101E2000B20387FF1EC0EC2FE695E695E695F0E03D
:101E3000E65DFD4F828190E04C2F477021E030E05D
:101E400002C0220F331F4A95E2F782239323892B86
:101E500091F06C2F8AE292E00E9480040E94B90CFB
:101E60000AC0ECE2F2E082E392E02191C21789F32A
:101E70008E179F07D1F76C2F8AE292E00E94AA0486
:101E8000CF910C94B90C80E28C0F883068F4C77045
:101E900021E030E001C0220FCA95EAF78091A0024C
:101EA000822B8093A002ECCFEBE5EC0FE33040F403
:101EB000F0E0E55BFE4F808190E0CF910C94F5045B
:101EC000E8E5EC0FE73150F4F0E0EE0FFF1FE25BC6
:101ED000FE4F80819181CF910C94DF04CD3E30F094
:101EE0008C2F0E94730ACF910C948B09CF91089587
:101EF0001F93CF93DF9300D000D00F92CDB7DEB702
:101F000025E0FC01DE01119601900D922A95E1F782
:101F1000FC01228189819A81222331F1662321F1FA
:101F20000E94330D182F682F89819A810E94CE0D4F
:101F30008A81E981F0E095E0899FE00DF11D11248F
:101F400088E2189FE00DF11D1124EE0FFF1FE455EC
:101F5000FF4F859194910F900F900F900F900F90DD
:101F6000DF91CF911F9108950E94A50D182FE0CF0A
:101F70009091DC03943031F58093B4037093B603F1
:101F80006093B50382E08093E9008FEF9091E800C1
:101F9000815095FD06C095ED9A95F1F700008111ED
:101FA000F5CF8091E80085FF0DC050E040E063E090
:101FB00070E084EB93E00E941C038091E8008E7730
:101FC0008093E8000895BC0184E00C94B80FBC0134
:101FD00083E00C94B80F9C0182E08093E9009FEFAE
:101FE0008091E800915085FD06C085ED8A95F1F756
:101FF00000009111F5CF8091E80085FF0CC050E002
:1020000040E066E070E0C9010E941C038091E80096
:102010008E778093E8000895CF93DF93EC01809151
:1020200043018823B1F18091B20387FF32C060E29F
:1020300082E08093E9008FEF9091E800815095FD58
:1020400006C095ED9A95F1F700008111F5CF8091CA
:10205000E80085FF1BC08091430170E050E040E044
:10206000811104C050E040E068E070E0CE010E94C1
:102070001C038091E8008E778093E80080E2FE01E7
:10208000AAEBB3E001900D928A95E1F7DF91CF9131
:10209000089568E081E0CDCF81E08093E00080E2A8
:1020A0008093D8001092C9008FE19EE40197F1F768
:1020B00000C0000087E090EBDC0180931A0490934D
:1020C0001B04A0931C04B0931D0488E19CE00FB690
:1020D000F894A895809360000FBE90936000FFCFA6
:1020E000CF92DF92EF92FF920F931F93CF93DF93E4
:1020F0006B01C42FD22FFC0182818823C1F0409351
:10210000A2030E9474049093A1038093A003C7705C
:1021100081E001C0880FCA95EAF7DF91CF911F9146
:102120000F91FF90EF90DF90CF900C94BF0E109125
:10213000A203141340C08091A0039091A1030E94B8
:1021400059047C01C6010E948002E816F90698F540
:10215000C0E2CD0F1D17B9F080E2810F883040F446
:10216000177081E001C0880F1A95EAF70E94B40E3B
:10217000C83048F481E09D2F977001C0880F9A9570
:10218000EAF70E94BF0E802F0E94020F802F0E944C
:10219000C90EC830B8F4D77081E001C0880FDA9555
:1021A000EAF7DF91CF911F910F91FF90EF90DF90B1
:1021B000CF900C94B40EC77081E001C0880FCA950F
:1021C000EAF7EFCFDF91CF911F910F91FF90EF9042
:1021D000DF90CF900895529A3BB13B7F2BB12460A2
:1021E0004FB7F89484E393E0FC015191CF0168E08C
:1021F0002BB9000000C057FF3BB9550F000000C0CD
:1022000000C000C03BB900C06A9591F7F3E0803A86
:102210009F0751F74FBF8FE594E00197F1F700C09A
:10222000000008959F92AF92BF92CF92DF92EF92FB
:10223000FF920F931F93CF93DF937C015B016A01A1
:102240008091D80201E010E08A3010F40AE010E03A
:10225000C1E0D0E0F894B501C701F6010995982EC8
:102260000E94CF0A911004C021960C171D076CF430
:10227000892DDF91CF911F910F91FF90EF90DF900B
:10228000CF90BF90AF909F900895CC9F9001CD9F2D
:10229000300D300D112490E080E045E34A95F1F7D0
:1022A0000000019682179307C1F7D4CF8091AF0247
:1022B000811110C08091D80080618093D8008AE19C
:1022C0008A95F1F700C08091D90080FF0AC081E0B3
:1022D0008093AF0281E09091AF02913009F080E0ED
:1022E000089582E08093AF020E94CC021092DC033A
:1022F000F1CF0F931F930E945611882321F01F9155
:102300000F910C9468040E9468040091A903109135
:10231000AA032091AB033091AC03600F711F821FA1
:10232000931F1F910F910895CF92DF92EF92FF922A
:102330006B017C010E9456118823A1F02FB7F894FD
:102340006091AE037091AF038091B0039091B1039F
:102350002FBF6C197D098E099F09FF90EF90DF90C8
:10236000CF9008950E947911F4CF0E9456118823CE
:1023700051F0E091A503F091A603309721F0019070
:10238000F081E02D099480E00895FF920F931F9350
:10239000CF93DF93EC01162F042FF22E8EE090E006
:1023A0000E94602F81110FC0C231D105A4F02F2DE2
:1023B000402F612FCE014297DF91CF911F910F9156
:1023C000FF900C941005C231D1052CF42F2D402F15
:1023D000612FCE01F1CFDF91CF911F910F91FF902F
:1023E00008952F923F925F926F927F928F929F9269
:1023F000AF92BF92CF92DF92EF92FF920F931F9313
:10240000CF93DF93CDB7DEB72A970FB6F894DEBF30
:102410000FBECDBF8B837E836D8320914501220F3C
:10242000220F220F2F83285F29832A83253210F061
:1024300034E23A838091F1038C83FF81EF2FF0E047
:10244000FA87E987CF01880F991F9C012D563E4FCF
:1024500069013B81832F90E0FC013196F887EF837F
:102460008A8199859817E8F081E0E981E43208F0E3
:1024700080E02A960FB6F894DEBF0FBECDBFDF9185
:10248000CF911F910F91FF90EF90DF90CF90BF9071
:10249000AF909F908F907F906F905F903F902F9024
:1024A0000895E985FA85ED5FFD4F808190914601A1
:1024B0008923F1F02090EC033090ED032F813885D3
:1024C0002F503C4F39015B8010E0FC815F16D0F04B
:1024D0002091EE03129F112D1124B101812F0E9432
:1024E000F708462F282F672F89859A850E94C511E6
:1024F00029853A852F5F3F4F3A87298732E0C30EFF
:10250000D11CAECFF30181913F01F601A0A4A81A1E
:10251000BB0881A4F3018781881A9908AA9C9001BD
:10252000AB9C300D300D1124889CC001899C900D0E
:10253000900D1124820F931F0E949508082F60911F
:10254000EF0321E0620F08F46FEFF301EE0FFF1FBE
:10255000E15FF340858996890E94ED087C01940132
:10256000A501B101812FED81FE8109951B015394D5
:10257000182FABCFCF92DF92EF92FF920F931F9362
:10258000CF93DF938C01C0914501CC0FCC0FCC0FC2
:1025900028E0D22EDC0ECD2C24E22D1510F494E28E
:1025A000C92E2091EF0331E0230F08F42FEF30E024
:1025B00050E040E06FEF7FEF80E090E00E94A22FBC
:1025C0007901D0E02C2FCC1570F081E0F3E2FD15FD
:1025D00008F480E0DF91CF911F910F91FF90EF9071
:1025E000DF90CF900895FE01ED5FFD4F80819091C7
:1025F0004601892311F14091F1034150042E000C52
:10260000550B47FF1CC0C7016091EF0321E0620F2B
:1026100008F46FEF0E94ED08AC016091EC0370913B
:10262000ED038091EE03F80109950E94F708462F0B
:10263000282F672FCE010E94C5112196C3CFFA0122
:10264000EF50FC4F818982130AC0FA01EE0FFF1F81
:10265000EF50FC4F818D928D8E159F05A8F2415051
:102660005109CFCFDF92EF92FF920F931F93CF9339
:10267000DF937C01C0914501CC0FCC0FCC0F18E04B
:102680001C0F012F153208F004E26091EF036695EC
:10269000669521E0620F08F46FEF8091E703909157
:1026A000E8030E94ED08D82ED0E0C01760F081E06A
:1026B000143208F080E0DF91CF911F910F91FF90CD
:1026C000EF90DF900895FE01ED5FFD4F80819091C6
:1026D0004601892391F06091EC037091ED038091A4
:1026E000EE032D2D4C2FF70109950E94F708462F78
:1026F000282F672FCE010E94C5112196D6CF9F9219
:10270000AF92BF92CF92DF92EF92FF920F931F93FF
:10271000CF93DF936C01C0914501CC0FCC0FCC0F50
:1027200018E01C0FB12E153210F034E2B32E609178
:10273000EF03669566958091E7039091E8030E9408
:10274000ED08F82E80E48F0D0E94530890E8A92E22
:10275000A80E8F2D0E94530820E8922E980ED0E0EC
:10276000CB1580F081E0143208F080E0DF91CF914A
:102770001F910F91FF90EF90DF90CF90BF90AF909F
:102780009F900895FE01ED5FFD4F8081909146017D
:102790008923A1F06091EC037091ED038091EE0329
:1027A000EF2C0C2F292D4A2DF60109950E94F708D0
:1027B000462F282F672FCE010E94C5112196D0CF1A
:1027C0005F926F927F928F929F92AF92BF92CF92C1
:1027D000DF92EF92FF920F931F93CF93DF933C0111
:1027E000C0914501CC0FCC0FCC0F18E01C0FF12E7F
:1027F000153210F034E2F32E6091EF03669580916C
:10280000E7039091E8030E94ED08582ED0E0CE0136
:10281000880F991F9C012D563E4F6901CF15A0F0DE
:1028200081E0143208F080E0DF91CF911F910F9189
:10283000FF90EF90DF90CF90BF90AF909F908F90E0
:102840007F906F905F900895FE01ED5FFD4F808156
:1028500090914601892379F1F60180A5282F205710
:10286000330B590181A5E82FE052FF0B4F01AA9CC1
:102870009001AB9C300D300D1124EE9FC001EF9FF5
:10288000900D900D1124820F931F0E949508082F20
:102890006091EC037091ED038091EE03E52C9401BF
:1028A000A501F30109950E94F708462F282F672FED
:1028B000CE010E94C511F2E0CF0ED11C2196AECF01
:1028C000AF92BF92CF92DF92EF92FF920F931F933E
:1028D000CF93DF936C01C0914501CC0FCC0FCC0F8F
:1028E00018E01C0FB12E153210F034E2B32E6091B7
:1028F000EF0366958091E7039091E8030E94ED084D
:10290000A82ED0E0CE01880F991F9C012D563E4F76
:102910007901CB1578F081E0143208F080E0DF9186
:10292000CF911F910F91FF90EF90DF90CF90BF90CC
:10293000AF900895FE01ED5FFD4F808190914601BB
:102940008923C1F0F70121A52052330B40A5405740
:10295000550B6091EC037091ED038091EE030A2D0D
:10296000F60109950E94F708462F282F672FCE0100
:102970000E94C511F2E0EF0EF11C2196CACF1F9301
:10298000CF93DF93EC01FC01ED5FFD4F8081682365
:10299000C9F00E942A2F182F0E942A2F8F77782F94
:1029A00020E8720F08F47FEF612F8091EE030E9400
:1029B000F708462F282F672FCE01DF91CF911F9167
:1029C0000C94C511DF91CF911F910895DF92EF9282
:1029D000FF920F931F93CF93DF938C01FC01ED5F68
:1029E000FD4F8081682381F1D090ED03D091EE03FB
:1029F000C091EC03EC2EF12C0E942A2F282FC70146
:102A00008C549F4F68E671E00E94C42E8E199F0976
:102A100097FD0396959587959595879523706C2FCF
:102A2000289F600D11247D2D8D2F0E94F708462FC1
:102A3000282F672FC801DF91CF911F910F91FF9031
:102A4000EF90DF900C94C511DF91CF911F910F9102
:102A5000FF90EF90DF900895FF920F931F93CF9315
:102A6000DF93182F062FF42ED0E0C0E02F2D402F3B
:102A7000612FCE010E94C5112196C432D105B1F754
:102A8000DF91CF911F910F91FF9008959F92AF9288
:102A9000BF92CF92DF92EF92FF920F931F93CF934B
:102AA000DF93182F80914201811323C09091EB0393
:102AB00093702091410130E081E09217130609F4F0
:102AC00080E08170809347018091F00390914601EE
:102AD000981739F08093460140E060E080E00E9462
:102AE0002C15183260F4E12FF0E0EB5EFF4C0C94F3
:102AF000D82E81E0E6CF80914701811102C0C0E06D
:102B000092C140E060E080E00E942C15F8CFC091B7
:102B10004501CC0FCC0FCC0F08E00C0FF02E053286
:102B200010F0A4E2FA2E6091EC037091ED03809115
:102B3000EE030E94F708E62ED72EC82ED0E0CF1560
:102B400028F0C1E0043208F46EC1D9CFFE01ED5F78
:102B5000FD4F808190914601892331F02C2D4E2D1F
:102B60006D2DCE010E94C5112196E9CFC09145017E
:102B7000CC0FCC0FCC0F08E00C0FF02E053210F06C
:102B8000F4E2FF2ED090ED03E090EE03D091EC0341
:102B90006D2F7D2D8E2D0E94F708C62EB72EA82EE4
:102BA0006091EF036D0F7D2D8E2D0E94F708E62EAC
:102BB000D72E982ED0E0CF1520F6FE01ED5FFD4F09
:102BC000908180914601892359F0292D4E2D6D2D3C
:102BD00090FD03C02A2D4C2D6B2DCE010E94C511F6
:102BE0002196E9CFC0914501CC0FCC0FCC0F08E066
:102BF0000C0FE02E053210F0E4E2EE2ED090ED0343
:102C0000C090EE032091EF0370E4F72E3F2D329F2A
:102C1000312D1124F32ED0E0CE1508F092CFFE0115
:102C2000ED5FFD4F8081909146018923B9F0FE014F
:102C3000EE0FFF1FED56FE4F81A582958F706091BC
:102C4000EC038F9D600D11247D2D8C2D0E94F708C3
:102C5000462F282F672FCE010E94C5112196DCCF69
:102C6000C0914501CC0FCC0FCC0F08E00C0FE02E2B
:102C7000053210F054E2E52ED090ED03C090EE0343
:102C80002091EF0340E4F42E3F2D329F312D11248B
:102C9000F32ED0E0CE1508F054CFFE01ED5FFD4FCE
:102CA0008081909146018923D9F0FE01EE0FFF1F2C
:102CB000ED56FE4F60A5F69EB001112435E07595E6
:102CC00067953A95E1F78091EC03680F7D2D8C2D87
:102CD0000E94F708462F282F672FCE010E94C511AA
:102CE0002196D8CFC0914501CC0FCC0FCC0F08E076
:102CF0000C0FF02E053210F094E2F92EE090EC0368
:102D0000D091ED03D090EE036091EF036695669548
:102D100066958091E7039091E8030E94ED080E9478
:102D20005308805887FD8195880F282F3D2D239FBC
:102D3000212D1124822F6E2D7D2F0E94F708E62E63
:102D4000D72EC82ED0E0CF1508F0FBCEFE01ED5FE8
:102D5000FD4F808190914601892331F02C2D4E2D1D
:102D60006D2DCE010E94C5112196EDCF8EE597E025
:102D70000E94321307C084E397E0FACF85E398E01E
:102D80000E946014C82F4FC086E198E0F9CF8BEF06
:102D900097E00E94E013F6CF8FED97E0FACF82E341
:102DA00097E0E6CF89E297E0E3CF80E297E0E0CFDB
:102DB00087E097E0DDCF89EF96E0EBCF85EC98E0F8
:102DC000DFCF8EEC97E0DCCF8AEB97E0E2CF8CECA4
:102DD00096E00E947F13D6CF8EE996E0FACF87E681
:102DE00096E0F7CFC0914701C1113CC06091EF035D
:102DF00020E1620F08F46FEF8091E7039091E80300
:102E00000E94ED086AE070E00E94B02E892B09F064
:102E100076CE0E942A2F64E270E00E94C42E609158
:102E200046010E94E614809145018F5F8093450121
:102E3000C1110CC082E0809344018091470181114F
:102E400005C0111103C083E080934401DF91CF914D
:102E50001F910F91FF90EF90DF90CF90BF90AF90B8
:102E60009F900895C0914501CC0FCC0FCC0F08E086
:102E70000C0F802F053208F084E2D0E0E82EF12C10
:102E8000CE15DF050CF05DCE60914601CE010E94AB
:102E9000E6142196F5CFC0914701C1111EC0609183
:102EA000EF0320E1620F08F46FEF8091E703909148
:102EB000E8030E94ED0865E070E00E94B02E892BC7
:102EC00009F01DCE0E942A2F64E270E00E94C42EF9
:102ED000609146010E94BF14A6CFC0914501CC0F5E
:102EE000CC0FCC0F08E00C0F802F053208F084E2E5
:102EF000D0E0E82EF12CCE15DF050CF022CE60914B
:102F00004601CE010E94BF142196F5CFC091450124
:102F1000CC0FCC0FCC0F08E00C0FF02E053210F0C8
:102F200084E2F82ED090ED03E090EE03D091EC0314
:102F30006091EF036695669566958091E7039091A1
:102F4000E8030E94ED080E945308805887FD819590
:102F5000880F682F2CE0629F612D11246D0F7D2D4D
:102F60008E2D0E94F708E62ED72EC82ED0E0CF1562
:102F700008F0E7CDFE01ED5FFD4F808190914601A5
:102F8000892331F02C2D4E2D6D2DCE010E94C511BF
:102F90002196EDCF82E798E0EBCE86E596E0E8CE8D
:102FA0008FE496E00E94BA12EDCE89E496E0FACF63
:102FB0008091F10321E0382F321B08F430E0832F99
:102FC00060E376E00E94F111DDCE60E376E080E020
:102FD000F9CF8091F10321E0382F321B08F430E063
:102FE000832F65EF75E0EECF65EF75E0F0CF809150
:102FF000F10321E0382F321B08F430E0832F63EC1B
:1030000075E0E0CF63EC75E0E2CF8091F10321E061
:10301000382F321B08F430E0832F6BEA75E0D2CFF3
:103020006BEA75E0D4CF8091F10321E0382F321B99
:1030300008F430E0832F65E975E0C4CF65E975E0F9
:10304000C6CFCF9384E090E00E94602FC82F82E229
:1030500090E00E94602F982F8C2FCF910895EBEE77
:10306000F3E085E380838091480190914901A0912C
:103070004A0181839283A3838FE784838FEF8583C3
:1030800046E050E06CE170E0CF010C946E2F9F920F
:10309000AF92BF92CF92DF92EF92FF920F931F9366
:1030A000CF93DF93CDB7DEB72C970FB6F894DEBF82
:1030B0000FBECDBF8E010F5F1F4F88E0F801119248
:1030C0008A95E9F78EE7C82E81E0D82EF12CE12C05
:1030D000AA24A394B12CF60181916F018F3F09F4CA
:1030E0004AC0F894E82FE295EF70F0E021A18F70CC
:1030F000A50102C0440F551F8A95E2F7CA01922F1D
:10310000982B91A392A18095892382A30E94CF0A34
:1031100000C0E6E8F1E030E020E0912C41914F3F23
:1031200009F470C0A42FA295AF70B0E090968C9176
:1031300090E04F7002C0959587954A95E2F780FD23
:1031400061C08A2D022E01C0880F0A94EAF7982ADE
:103150002F5F3F4F2530310509F7F6013197808108
:103160008F3F11F00E94D10A50EA5A95F1F7F80109
:10317000EE0DFF1D90828FEFE81AF80AE4E0EE16DC
:10318000F10409F0A8CF48E050E0B8018DED92E0DD
:103190000E943A2F7C01892B41F088E0F801ADEDC7
:1031A000B2E001900D928A95E1F71091E602E114E8
:1031B000F10451F181E08093A8020E94740490937D
:1031C000A7028093A6028091A6029091A7020E9476
:1031D0005904059790F0E12FF0E0E951FD4F8091FF
:1031E000DD0280838091DE0281838091DF02828311
:1031F0008091E00283831092A802EF2849F081E0D9
:1032000090E064C080E0A3CF8091A8028111DBCF61
:103210000E945611F82EE091E602882309F48DC031
:1032200019861A861B861C860E2F10E009511D4F29
:103230008091D8028A3008F05BC048E65AE1BE01AE
:10324000675F7F4FC8010E941211882309F464C090
:1032500041EA5BE1BE01675F7F4FC8010E94121126
:10326000882309F459C04FE05AE1BE01675F7F4FE0
:10327000C8010E941211882309F44EC04AE65BE19E
:10328000BE01675F7F4FC8010E941211882309F4B5
:1032900043C01092D802A091E502B0E0A951BD4F01
:1032A000BE01675F7F4F9E01235F3F4F80E04D91DE
:1032B000FB019191BF01491731F0AD014150510916
:1032C000FA0190838F2D6217730789F72C960FB63A
:1032D000F894DEBF0FBECDBFDF91CF911F910F914C
:1032E000FF90EF90DF90CF90BF90AF909F900895A8
:1032F0008091A9029091AA020E945904843F9140B2
:1033000008F09BCFE091E502F0E0E951FD4F10821B
:1033100011821282138273CF8091D8028F3F31F0D5
:103320008F5F8093D8028A3008F4B5CF0E9474046E
:103330009093AA028093A902E5CFF0E0E951FD4FF6
:103340000091E50210E009511D4FF89484E0ADEBC7
:10335000B2E001900D928A95E1F78DEB92E00E9428
:103360008D028093BC020E94CF0AF89484E0E1ECC5
:10337000F2E0D80101900D928A95E1F70E94CF0A00
:10338000F894C090C502D090C602E090C702F090B9
:10339000C8028091AB029091AC02A091AD02B091B5
:1033A000AE02C816D906EA06FB06D1F0C092AB02FF
:1033B000D092AC02E092AD02F092AE020E945611A1
:1033C00081110EC00E946804C61AD70AE80AF90AD9
:1033D000C092A903D092AA03E092AB03F092AC038F
:1033E0000E94CF0AF89486E0E9ECF2E0ABEEB3E09D
:1033F00001900D928A95E1F71091CF02112349F0C7
:1034000080911C03811105C00E94461580E00E9436
:10341000880510931C030E94CF0A80E057CFCF93FA
:10342000DF9300D000D0CDB7DEB74091D0025091ED
:10343000D1026091D2027091D3022FB7F89480919B
:10344000AE039091AF03A091B003B091B1032FBF31
:10345000841B950BA60BB70B84369105A105B1050E
:1034600068F10E9479116E5F7F4F8F4F9F4F698384
:103470007A838B839C8380912501909126018454CB
:103480009D4F4091240150E04530510510F044E03B
:1034900050E0BE016F5F7F4F0E94472F83E090E0B6
:1034A0000E94FC2D892B61F40E9468046093D00275
:1034B0007093D1028093D2029093D30281E001C035
:1034C00080E00F900F900F900F90DF91CF910895B3
:1034D0000F931F93CF93DF9300D000D00F92CDB7FF
:1034E000DEB78B0190E080E00E94FC2D892B09F073
:1034F00085C04091090150E04115510511F041E0AE
:1035000050E060910A0170910B0164547D4FCE012F
:1035100005960E94472F4091B4025091B5026091E8
:10352000B6027091B7022FB7F8948091AE039091D4
:10353000AF03A091B003B091B1032FBF841B950BD3
:10354000A60BB70B84369105A105B10540F48DEBB0
:1035500092E00E948D029D81891709F45FC081E08D
:1035600090E00E94FC2D892BC1F080E04091B002D8
:103570005091B1026091B2027091B302F8014083A0
:103580005183628373830F900F900F900F900F9071
:10359000DF91CF911F910F9108954091130150E059
:1035A0004530510510F044E050E0609114017091F5
:1035B000150164547D4FCE0101960E94472F8DEB7B
:1035C00092E00E948D029D818913CFCF0E946804F2
:1035D0006093B4027093B5028093B6029093B702E1
:1035E00089819A81AB81BC818093B0029093B102B2
:1035F000A093B202B093B30281E0B8CF80E04091D3
:10360000BD025091BE026091BF027091C002498319
:103610005A836B837C838111E3CFA8CF81E0EFCF06
:103620008F929F92AF92BF92CF92DF92EF92FF92D2
:103630000F931F93CF93DF93EB0188809980AA802B
:10364000BB809FB7F894C090AE03D090AF03E090DA
:10365000B003F090B1039FBFC818D908EA08FB086F
:1036600094E6C916D104E104F10410F4442311F1E5
:10367000E82E082E000CFF089AE08902F0011124C0
:10368000EC5FFE4F8381948184549D4F428150E0D2
:103690000417150708F4A801B9010E94472FC701B4
:1036A0000E94FC2D892BA1F40E9468046883798311
:1036B0008A839B8381E0DF91CF911F910F91FF90CF
:1036C000EF90DF90CF90BF90AF909F908F90089534
:1036D00080E0F1CF0F931F93CF93DF9300D000D002
:1036E00000D00F92CDB7DEB786E0EBEEF3E0DE015F
:1036F000119601900D928A95E1F780911C038F83BA
:1037000047E050E069EC72E0CE0101960E943A2F4A
:1037100041E0892B09F440E007E010E09E012F5FB3
:103720003F4F64ED72E084E00E94101B27960FB6B5
:10373000F894DEBF0FBECDBFDF91CF911F910F91E7
:1037400008950F931F93CF93DF93EC0144E050E073
:1037500061EC72E00E943A2F41E0892B09F440E0CD
:1037600004E010E09E0168EB72E082E00E94101B12
:10377000DF91CF911F910F91089569EE7EEF90E058
:1037800080E00E949C2F60E082E090E00E947E2F0B
:1037900060E083E090E00E947E2F1092A2021092DF
:1037A000A3021092A4021092A50260E084E090E0CF
:1037B0000E947E2F60E082E290E00E947E2F60E017
:1037C00085E090E00E947E2F60E086E090E00E941D
:1037D0007E2F6FEF87E090E00E947E2F40E050E068
:1037E000BA0188E090E00E94902F60E08DE090E0C8
:1037F0000E947E2F40E050E0BA0188E190E00E94F4
:10380000902F60E087E190E00E947E2F40E050E042
:10381000BA018CE190E00E94902F70E060E080E2BD
:1038200090E00E949C2F40E050E0BA0188E190E0D7
:103830000E94902F40E050E0BA018FE090E00E949B
:10384000902F40E050E0BA0183E190E00C94902F7B
:10385000CF93C091B303C2FB992790F9981781F0D9
:1038600080FBC2F9C093B3036091B20384E090E09F
:103870000E947E2F6C2F82E290E0CF910C947E2FDD
:10388000CF9108951092A00280914301ECE2F2E002
:10389000882359F08091B20387FF07C08EE1DF01D2
:1038A0001D928A95E9F70C94230E86E0F8CF1F93BA
:1038B000CF93DF93CDB7DEB7AA970FB6F894DEBFEC
:1038C0000FBECDBF8EED93E02091F100FC0121935E
:1038D000CF01F3E0863E9F07B9F78091DF03833085
:1038E00009F46FC0B8F4813009F446C0823009F49D
:1038F000B0C08091E80083FF7BC28091DE0390918D
:10390000DF039A3008F074C2E92FF0E0E35CFF4C6B
:103910000C94D82E8A3009F48BC08B3009F46EC019
:10392000893039F78091DE03813219F78091E20303
:103930009091E3030297E8F68091E800877F8093F7
:10394000E8008091E80082FF37C09091F3008091F9
:10395000F200029729F48091F1008B7F813021F4ED
:103960008091F1008093B9038091E8008B77809378
:10397000E8000E944603BDCF8091DE03813A09F042
:10398000B8CF8091E800877F8093E8008091E203C0
:103990009091E303892B61F460E28AEB93E070E09D
:1039A0000E94F8038091E8008B778093E800A1CF14
:1039B00060E090E080E0F3CF8091DC038111C1CF23
:1039C00098CF8091DE03813A09F093CF8091E20392
:1039D0009091E303892B09F08CCF8091E800877FD9
:1039E0008093E8008091E80080FFFCCF8091430144
:1039F0008093F1008091E8008E77B9CF8091DE034B
:103A0000813209F076CF8091E2039091E303892B14
:103A100009F06FCF8091E800877F8093E8000E94D3
:103A200046038091E003809343010E94421C61CFD2
:103A30008091DE03813209F05CCF8091E800877FBE
:103A40008093E8000E9446038091E1038093B803CD
:103A500050CF8091DE03813A09F04BCF8091E8008E
:103A6000877F8093E8008091E80080FFFCCF809101
:103A7000B803BECF803899F0823809F0B9C180917F
:103A8000E2038F70873008F0B3C18093E900809122
:103A9000EB0085FB882780F91092E90006C0809131
:103AA000DA039091DB03911182609091E800977F97
:103AB0009093E8008093F1001092F1008091E8006B
:103AC0008E7792C1882309F480C1823009F090C1B9
:103AD0008091E003811183C18091E2038F702FEF09
:103AE000280F263008F084C18093E9002091EB0074
:103AF00020FF75C1933031F48091EB008062809398
:103B0000EB006DC19091EB0090619093EB0021E090
:103B100030E001C0220F8A95EAF72093EA00109264
:103B2000EA008091EB008860EACF811161C11091B9
:103B3000E0031F778091E3008078812B8093E3007E
:103B40008091E800877F8093E8000E94460380917F
:103B5000E80080FFFCCF8091E30080688093E30061
:103B600082E0111183E08093DC0342C180588230EF
:103B700008F03EC18091E0039091E1038C3D23E089
:103B80009207A1F583E08A838AE289834FB7F8948C
:103B9000DE01139620E03EE051E2E32FF0E0509387
:103BA0005700E49120FF03C0E295EF703F5FEF7094
:103BB0008E2F90E0EA30C0F0C7968D939D932F5FD3
:103BC000243159F74FBF8091E800877F8093E80048
:103BD0006AE270E0CE0101960E94F8038091E8004D
:103BE0008B778093E80004C1C096E7CF4091E20351
:103BF0005091E303292F33272330310509F444C0C2
:103C000078F52130310509F46FC08BE390E0E2EEE6
:103C1000F3E02230310509F0EBC02091E800277F66
:103C20002093E8002091E4033091E5038217930785
:103C300008F49C0140E02115310509F064C04111F0
:103C400062C08091E80082FDC9CF8091DC038823A7
:103C500029F2853019F28091E80083FFF2CFBECFC0
:103C600021323105A9F12232310509F0C1C04115D7
:103C7000510509F443C04130510509F0B9C086EB44
:103C800090E0ECEEF2E0C9CF992781309105C1F0C8
:103C9000009759F0029709F0ABC0EFE2F4E0E4912D
:103CA0008E2F90E0EFE2F4E007C0E9E6F4E0E49163
:103CB0008E2F90E0E9E6F4E0009709F499C0ADCFCB
:103CC000E3E4F4E0E4918E2F90E0E3E4F4E0F4CF59
:103CD0004115510571F04130510509F089C089E065
:103CE00090E0EDE0F4E099CF82E190E0EDE1F4E0E6
:103CF00094CF89E090E0E4EFF3E08FCF80E490E0B0
:103D0000E2EAF3E08ACF8091DC03882309F466CFEE
:103D1000853009F463CF8091E80083FD5FCF809107
:103D2000E80082FD8ECF8091E80080FF84CF9091E3
:103D3000F3008091F2002115310519F088309105CA
:103D400050F041E0089709F040E08091E8008E775C
:103D50008093E80070CF44914093F1003196215058
:103D600031090196E8CF803809F042C08091E8001F
:103D7000877F8093E8008091DD038093F1009ECEE1
:103D8000811136C01091E003123090F58091E80067
:103D9000877F8093E8001093DD030E944603112380
:103DA00011F084E005C08091E30087FDFACF81E047
:103DB0008093DC0342E061EC81E00E94650342E213
:103DC00061EC82E00E94650313C08091E0038130C2
:103DD00079F481E0933009F080E08093DB03109266
:103DE000E9008091E800877F8093E8000E94460305
:103DF0008091E80083FF0AC08091E800877F80936C
:103E0000E8008091EB0080628093EB00AA960FB6E9
:103E1000F894DEBF0FBECDBFDF91CF911F91089503
:103E20003F924F925F926F927F928F929F92AF924A
:103E3000BF92CF92DF92EF92FF920F931F93CF9397
:103E4000DF937C01FC0143815481618180810E9468
:103E50001E0D382E81112EC561E0C7010E94780F1A
:103E6000EC01843FFCE59F0709F48EC098F5893D7D
:103E70009C4509F483C0CA3D8CE5D80709F49CC071
:103E8000C83D9CE5D90789F506E221EE41EE68EDD3
:103E90007CE5C7010E94701080919D02877009F433
:103EA00009C5F7018281882309F404C582E0DF9106
:103EB000CF911F910F91FF90EF90DF90CF90BF9027
:103EC000AF909F908F907F906F905F904F903F90BA
:103ED0000C946D0E863FECE59E0709F461C008F472
:103EE00059C0873F9C4509F461C0F701828188234E
:103EF00009F4FCC31092A203C230FCE5DF0708F40A
:103F00003FC1C6312CE5D20730F0CE018B5F9C4516
:103F1000099708F035C10E9421189093B30380934C
:103F2000B203C0313CE5D30709F4F9C008F087C0FB
:103F3000C8309CE5D90709F4E8C008F056C0C43081
:103F4000FCE5DF0709F4D9C0E8F5C2303CE5D3074A
:103F500009F4C9C0C330DC4509F4CBC06091B20399
:103F6000C091B30384E090E00E947E2F6C2F82E228
:103F700090E00E947E2F0E94421C8ECF07E225EE29
:103F800045EE69ED7CE585CF06E221EE40EE64EF7B
:103F90007CE57FCF07E225EE44EE65EF7CE579CF47
:103FA00006E221EE42EE66EF7CE573CF07E225EEF6
:103FB00046EE67EF7CE56DCF08E221E045EE6AED65
:103FC0007CE567CF8091B2038061C6309CE5D9075C
:103FD00009F48CC08091B2038860C730DC4508F4D6
:103FE00085C08091B203806281C08091B2038D7FD1
:103FF000CC30FCE5DF0709F479C070F48091B2039E
:104000008C60CA303CE5D30709F470C008F481C065
:104010008091B2038E7F6AC08091B203877FCE30D9
:104020009CE5D90709F462C08091B2038B7FCF3041
:10403000DC4508F45BC08091B2038F7E57C0CC3F53
:10404000FCE5DF0709F45DC030F5C3313CE5D3077B
:1040500009F46DC078F4C1319CE5D90709F463C057
:10406000C231DC4509F07ACF0E94421C8091B20334
:104070008F773CC0C531FCE5DF0709F460C008F468
:1040800074C08091B3038160CB3FDC4509F066CFFB
:104090008093B30363CFC1158DE5D80709F44BC0F6
:1040A00088F48091B3038D7FCE3FECE5DE0781F38A
:1040B0008091B3038E7FCF3FDC4550F38091B303F3
:1040C0008360E6CFC2302DE5D20709F457C008F46B
:1040D00042C060E0C330DD4509F040CF8EE090E0A3
:1040E0000E947E2F3BCF8091B20381608093B20308
:1040F00035CF8091B2038260F9CF8091B2038460A2
:10410000F5CF8091B3038260C3CF8091B203806406
:10411000EDCF0E94421C8091B2038068E7CF80916E
:10412000B2038F7DE3CF8091B2038F7BDFCF80918D
:10413000B203837FDBCF8091B3038C7FA9CF8091C3
:10414000B20382FB992790F921E0922790FB82F934
:1041500090FB83F9CBCF8091B303982F909591700A
:104160008E7F892B90FB81F993CF0E94421C909106
:10417000B203892F97FB87F98058B8CF61E0AECFA3
:10418000C6319CE5D90709F0C0C28091A0028A7AA5
:1041900091E009F490E090934B0269E2811165E3AC
:1041A0008AE292E00E94AA040E94B90C75CE45E70B
:1041B00055E06EE775E00E940B056ECE4EE755E0C8
:1041C00065E775E0F8CF43E655E06CE675E0F3CFC0
:1041D0004CE655E063E675E0EECF4BE455E067E56D
:1041E00075E0E9CF47E555E06BE475E0E4CF4FE3D8
:1041F00055E063E375E0DFCF4BE155E067E275E042
:10420000DACF47E255E06BE175E0D5CF81E00E945F
:10421000A40242CE8DE0FBCF0E94421CEFEFF4E3FC
:104220002CE0E150F0402040E1F700C000000E9487
:104230004C1081E08AC280E088C2CE010E94A50DA8
:10424000082F94C22C2F2F70C22EC07F19F0C29459
:1042500090EFC9220023C9F0CC2069F080E28D0FD5
:10426000883010F011110BC08091A002C82AC092B2
:10427000A0020E94B90C8D2F0E94020F18C08091DD
:104280009F02C82AC0929F02F4CF8D2F0E94C90EB0
:10429000CC2069F0C094D05ED83010F011113BC032
:1042A0008091A002C822C092A0020E94B90C2D2DBC
:1042B0002850330B2430310510F40E94B5113320FF
:1042C000A9F080919D0280FD11C0F70112828595B1
:1042D000859585950E94890EC7010E94101F8091C7
:1042E0009D028595859585950E944A0E60E0C701DF
:1042F000DF91CF911F910F91FF90EF90DF90CF90C2
:10430000BF90AF909F908F907F906F905F904F90F5
:104310003F900C94780F80919F02C822C0929F0218
:10432000C4CF3C2F3F70B32EC07FC03219F0B2947F
:1043300080EFB822112339F0113051F10023A9F197
:10434000CC2061F198CF0023B1F09091A1028B2D88
:10435000892BC11003C00E94BF0EA9CFE1E0CE128D
:10436000FACF2091B30322FDA2CF981709F49FCF73
:104370008093A1029CCFC11006C00E94B30C8B2D6C
:104380000E94B40E94CFF1E0CF1609F490CFF5CF90
:10439000002331F025E02C1508F489CF8B2DDBCFDD
:1043A00034E03C1508F483CFEACFCC2041F3193335
:1043B00049F48FEF97EEE3E081509040E040E1F761
:1043C00000C000008D2F0E94C90E71CF8C2F8695E2
:1043D0008695837069F0813009F069CF8D2F9C2F0D
:1043E0009370011102C090E080E00E94DF045FCF73
:1043F0008D2F9C2F9370011102C090E080E00E94ED
:10440000F50455CF8D2F002329F00E94730A0E94D6
:104410008B094DCF0E94B209FACF8C2F837009F01F
:1044200065C0011144CF8D2F829586958770880FC6
:10443000880F6D2F6F70862E912CB12CA12C082E19
:1044400004C0880C991CAA1CBB1C0A94D2F740E03B
:1044500050E0BA01D4FF0FC04FE050E060E070E0E0
:1044600004C0440F551F661F771F8A95D2F74095E9
:10447000509560957095C695C695C370C23019F178
:10448000D8F44090A2025090A3026090A4027090D1
:10449000A502C13069F0482959296A297B29CB0135
:1044A000BA0164217521862197210E94AA0EFFCEB0
:1044B00084289528A628B728CB01BA01682979292C
:1044C0008A299B29F2CF482959296A297B2980907A
:1044D000A2029090A302A090A402B090A502CB01EA
:1044E000BA01682579258A259B25DFCF869500238B
:1044F00011F08C2F8170882309F4D9CE8D2F8295ED
:1045000086958770880F880F6D2F6F70862E912C7F
:10451000B12CA12C082E04C0880C991CAA1CBB1C11
:104520000A94D2F740E050E0BA01D4FF0FC04FE048
:1045300050E060E070E004C0440F551F661F771F15
:104540008A95D2F74095509560957095C695C69519
:10455000C370C23019F1D8F44090D9025090DA02F9
:104560006090DB027090DC02C13069F04829592963
:104570006A297B29CB01BA01642175218621972103
:104580000E94400E94CE84289528A628B728CB01F7
:10459000BA01682979298A299B29F2CF4829592902
:1045A0006A297B298090D9029090DA02A090DB02E0
:1045B000B090DC02CB01BA01682579258A259B25BC
:1045C000DFCFCF70002329F08C2F0E94890E8D2F12
:1045D000C2CE8D2F0E94B40E8C2F0E944A0E67CE41
:1045E0008D2F123F09F44FC068F4103F21F1113FA5
:1045F00009F441C0002309F469C0C1103CCE8C2FDE
:104600008F713EC0133F09F443C0143F99F7002354
:1046100009F451C0CF718C2F0E94890E8091B30391
:1046200082FD07C038E0C39FC001112483608093DE
:104630009D028C2F25C00023C9F0F4E0FC1508F47E
:1046400036CECF7161E070E080E090E004C0660F8C
:10465000771F881F991FCA95D2F78090D902909032
:10466000DA02A090DB02B090DC02A6CF25E02C1588
:1046700008F41DCEE6CF8C2F8F71002309F4ADCF47
:104680000E94890E14CE8C2F8F710023C9F3A5CF01
:1046900060E070E0CB01002309F472CFCF7161E0DC
:1046A00070E080E090E004C0660F771F881F991FBC
:1046B000CA95D2F765CF81E00E946D0E81E08C151E
:1046C00008F0F5CD82E00E946D0EF1CDCC2059F0BE
:1046D000893309F077CE9FEFE7EEF3E09150E040A9
:1046E000F040E1F76DCE8C2F8F7177CFC631FCE5AE
:1046F000DF0709F07EC080914B0269E2811165E31A
:104700008AE292E00E9480044FCDCB352DE5D2079E
:1047100009F48FCD58F4C1158CE5D80709F47CCD88
:10472000CF3DDC45A1F40E94BD1BB6CBCC35EDE5F9
:10473000DE0709F480CDCD35DD4549F48091B30322
:1047400082FB882780F991E089270E94281CF701C5
:104750008281C081D181882309F46FCDCE010E946E
:10476000330D082F682FCE010E94CE0DEC2FF0E004
:1047700025E0D29FE00DF11D112438E2039FE00DEA
:10478000F11D1124EE0FFF1FE455FF4F8591949109
:104790000E942B0BD82FC92F182FF7010281C5803B
:1047A000C2944FE0C42280919D028770A1F0002343
:1047B00089F0892F807F803421F080E28D0F88304E
:1047C00050F082E00E946D0E80919D02877033242C
:1047D00033948111312CDC2ED2942FE0D222FBE0D5
:1047E000FD1508F464CDED2DF0E0E95BFF4C0C9471
:1047F000D82E8091A0028272CB3C2CE5D20709F41E
:10480000F6CC88F5C63C9CE5D90709F4DCCCB0F4BD
:10481000C43CFCE5DF0709F4CACC08F0CFCCC33CAC
:10482000DC4509F094CF8091EB0391E089278093D8
:10483000EB03109244019093E6032ECBC83C9CE519
:10484000D90709F4CACC08F4C3CCC93CFCE5DF079E
:1048500009F4C8CC43E355E06FE375E0CA3CDC459E
:1048600009F4A9CC74CFC03D3CE5D30709F4D2CC00
:1048700090F4CD3CECE5DE0709F4C3CC08F4BCCCE5
:10488000CE3C2CE5D20709F4C1CC85E0CF3CDC4519
:1048900009F4BDCC5CCFC73D8CE5D80730F482E18C
:1048A000C23DDC4508F4B3CCF7CACE35DD4509F48A
:1048B000F3CA4DCFDF91CF911F910F91FF90EF90F1
:1048C000DF90CF90BF90AF909F908F907F906F9030
:1048D0005F904F903F900895BF92CF92DF92EF92FA
:1048E000FF920F931F93CF93DF9380916A02807F93
:1048F00061F480916702882341F0C0919C0286E0B8
:10490000B82E80916B028C130AC0DF91CF911F915A
:104910000F91FF90EF90DF90CF90BF900895F090AF
:104920006502E0906602C0906802D0906902A6011C
:104930006E2D8F2D0E941E0DD0E081113BC0BC9EBC
:104940008001BD9E100D1124F801E459FD4F8181B5
:104950008E1130C080818F112DC0828181112AC0BB
:10496000E380F480EC18FD0860E085E692E00E94A8
:10497000780F0E948002E816F906E0F480916A023E
:104980008F70806180936A02F801EF58FD4F80813B
:104990008F708061808385E692E00E94101FDF9116
:1049A000CF911F910F91FF90EF90DF90CF90BF902C
:1049B0000C94290D2196C770A4CF5F926F927F92BD
:1049C0008F929F92AF92BF92CF92DF92EF92FF921F
:1049D0000F931F93CF93DF93CDB7DEB761970FB6D9
:1049E000F894DEBF0FBECDBF8C0185E0F801DE017B
:1049F0001D9601900D928A95E1F7D8011296EC90E0
:104A000085E6A82E82E0B82E809068029090690218
:104A1000A40160916602809165020E941E0D8111C1
:104A20007DC1F801C380D480F0906702C601881967
:104A300099094C01FF2009F43EC15080618060E07B
:104A4000C5010E94780F0E94800270906A02881649
:104A5000990608F0F2C04091680250916902B09046
:104A60006502A0906602872D807F6A2D09F09DC0A7
:104A70008B2D0E941E0DFE2C81112FC0D801119686
:104A80008C9111978A1129C08C918B1126C0E1104D
:104A900024C0872D8F70806180936A0285E692E042
:104AA0000E94101F80916A02F80185838F2D619604
:104AB0000FB6F894DEBF0FBECDBFDF91CF911F912F
:104AC0000F91FF90EF90DF90CF90BF90AF909F90AD
:104AD0008F907F906F905F90089560E085E692E000
:104AE0000E94780F0E9480025C01A601662D852D30
:104AF0000E941E0DD82EF4EFAF16F1E0BF06D0F0E5
:104B000081E08E25D11080E080FF14C04E2D662DEF
:104B1000852D0E94FE0C882369F085E692E00E94B4
:104B2000101F86E0E5E6F2E0DF011D928A95E9F7C5
:104B3000F12CBCCF81E08E25D11080E0B82FB17070
:104B4000CB2E80FF29C04E2D662D852D0E94FE0C98
:104B5000D82E811121C05D866E868D859E850E942E
:104B60008A0D292F22952F70223050F0243078F4AE
:104B70009F7051F0F8019581907F31F4FD2C96CF14
:104B80009F7011F08823D1F3805E8830B8F3C8019C
:104B90000E94101FDC2CF2CFEE2009F487CF809109
:104BA0006A02816080936A02C3CF8B2D0E941E0D22
:104BB000811119C0D80111968C9111978A1113C0D7
:104BC0008C918B1110C0E1100EC015967C92C8011B
:104BD0000E94101F86E0F801A5E6B2E001900D9258
:104BE0008A95E1F763CFC8010E94FC0D882309F183
:104BF000EE20F9F080916A02803270F02091650217
:104C00003091660238872F831986DB86CA868C87A7
:104C1000CE0107960E94101F86E0F801A5E6B2E0DB
:104C200001900D928A95E1F70E946C24FF24F39481
:104C30003DCFC8010E94101FF9CF872D807F09F456
:104C40006CCF90906502809066024091680250910E
:104C50006902682D892D0E941E0D811113C0F80173
:104C6000818188110FC0808189110CC0E1100AC0B8
:104C70007582C8010E94101F86E0D5011D928A9599
:104C8000E9F714CFC8010E94FC0D882391F2EE20B1
:104C900081F280916A02803208F4BECF20916502D1
:104CA000309166023A8329831B82DD82CC828E8317
:104CB000CE010196AFCF60E085E692E00E94780FCA
:104CC0000E94800288169906B8F6FE2CEE2009F4A0
:104CD000B0CFE0906502D09066024091680250919A
:104CE00069026D2D8E2D0E941E0D811109C0F801E3
:104CF00081818D1105C080818E1102C086E06CCF4C
:104D0000C8010E94FC0D811187CF80916A028160E9
:104D100080936A02C8010E94101FC8CEEE2009F4D9
:104D200088CFC8010E94FC0DF82E882309F481CF9A
:104D300086E0F801A5E6B2E001900D928A95E1F7D0
:104D400080916502909166020E948A0D0E946C24F7
:104D5000ADCE1F93CF93DF93CDB7DEB767970FB676
:104D6000F894DEBF0FBECDBF4B8B5C8B6D8B7E8B03
:104D70008F8B611110929F021A8A198A85E0FE01B9
:104D80007396DE011D9601900D928A95E1F786E0FB
:104D9000FE013D96DE01179601900D928A95E1F78E
:104DA000CE0107960E94DD24811111C086E0FE012C
:104DB0003796DE01119601900D928A95E1F74A85AA
:104DC0005B8568858F810E941E0D882389F016E01F
:104DD00080919C0290916B02891337C067960FB641
:104DE000F894DEBF0FBECDBFDF91CF911F91089524
:104DF00020916B0230E0C90101968770992740919C
:104E00009C024817190699F096E0929FD001939F53
:104E1000B00D1124A459BD4FFE01319601900D92A1
:104E20009A95E1F780936B020E94290DD0CF0E94E2
:104E3000421C10926B0210929C0286E0E5E6F2E0C2
:104E4000DF011D928A95E9F7C2CF819FC00111242D
:104E500084599D4F0E94DD24882309F4BFCF80919F
:104E60009C0290E001968770992780939C02B0CFB6
:104E70001F920F920FB60F9211242F933F934F93CF
:104E80005F936F937F938F939F93AF93BF93CF93D2
:104E9000DF93EF93FF93D091E900DF708091EC00F6
:104EA000C82FC17080FDC0E81092E9008091F00029
:104EB000877F8093F00078940E94571C1092E9003D
:104EC0008091F00088608093F000CD2BCF70C0936C
:104ED000E900FF91EF91DF91CF91BF91AF919F9149
:104EE0008F917F916F915F914F913F912F910F9093
:104EF0000FBE0F901F9018951F920F920FB60F9232
:104F000011242F933F934F935F936F937F938F93CE
:104F10009F93AF93BF93EF93FF938091E10082FF44
:104F200009C08091E20082FF05C08091E1008B7F83
:104F30008093E1008091DA0080FF24C08091D80046
:104F400080FF20C08091DA008E7F8093DA0080910C
:104F5000D90080FF9BC080E189BD82E189BD09B491
:104F600000FEFDCF81E08093DC038091B7038111C7
:104F700009C00E94CC020E9497038091E2008460E5
:104F80008093E2008091E10080FF17C08091E200F1
:104F900080FF13C08091E2008E7F8093E2008091B9
:104FA000E20080618093E2008091D800806280936B
:104FB000D80019BC85E08093DC038091E10084FF78
:104FC00029C08091E20084FF25C080E189BD82E193
:104FD00089BD89B5982F917080FFFBCF8091D80053
:104FE0008F7D8093D8008091E1008F7E8093E100D7
:104FF0008091E2008F7E8093E2008091E2008160E8
:105000008093E2008091DD03882309F445C084E0A9
:105010008093DC038091E10083FF27C08091E20050
:1050200083FF23C08091E100877F8093E10082E0CD
:105030008093DC031092DD038091E1008E7F8093EA
:10504000E1008091E2008E7F8093E2008091E20097
:1050500080618093E20042E060E080E00E946503AE
:105060008091F00088608093F000FF91EF91BF91F4
:10507000AF919F918F917F916F915F914F913F91F0
:105080002F910F900FBE0F901F90189519BC109282
:10509000DC031092B70376CF8091E30087FD93E0A5
:1050A0009093DC03B7CF78941F921FB61F92112400
:1050B0008F939F93AF93BF938091AE039091AF0373
:1050C000A091B003B091B1030196A11DB11D8093D1
:1050D000AE039093AF03A093B003B093B103BF911D
:1050E000AF919F918F911F901FBE1F9018951F9297
:1050F0001FB61F9211248F939F93AF93BF938091FC
:10510000AD03811113C08091AE039091AF03A091C4
:10511000B003B091B1034196A11DB11D8093AE03C0
:105120009093AF03A093B003B093B103BF91AF913D
:105130009F918F911F901FBE1F901895CDB7DEB71E
:1051400064970FB6F894DEBF0FBECDBF84B7877FDC
:1051500084BF0FB6F894A895809160008861809311
:105160006000109260000FBE80E890E00FB6F894E7
:1051700080936100909361000FBE85B7806885BF02
:1051800085B7806885BF8DEC9AE090932902809363
:1051900028020E94CC020E9497038091E200846062
:1051A0008093E20078948091DC038823A1F0109131
:1051B000E9001F709091EC00892F817090FD80E8CC
:1051C000182B1092E9008091E80083FD0E94571C83
:1051D0001F701093E90082E084BD93E095BD9AEFC3
:1051E00097BD80936E001092A9031092AA031092AB
:1051F000AB031092AC038EE090E00E94602F91E030
:10520000811101C090E0909336010E9456118111E6
:105210000E94EF2C809136018091360194E081113B
:1052200090E09093E60284E0891B8093E50281E39D
:105230000E94D10A83E30E94D10A82E30E94D10A2C
:1052400086E30E94D10A06E811E0D8018D918D0114
:105250008F3F11F00E94D10AB1E00B381B07A9F76C
:10526000EDEDF2E0A7EEB2E011921D9202E0E53E14
:10527000F007D1F790E080E00E94682F893E9E4FB2
:1052800011F00E94BD1B82E090E00E94602F80938D
:105290001E030E9421189093B3038093B2030E94CF
:1052A00047188FE39CE90197F1F700C000000E94C6
:1052B00047188091E70280FF08C06FEF7FEF90E012
:1052C00080E00E949C2F0E944C1083E090E00E949E
:1052D000602F682F70E090E080E00E94AA0E10928C
:1052E000F1038FEF9FEF90930B0480930A04909348
:1052F0000D0480930C0490930F0480930E049093FC
:1053000011048093100490931304809312049093DB
:1053100015048093140490931704809316049093BB
:105320001904809318041092EF029093090380935C
:10533000080390930B0380930A0390930D038093CB
:105340000C0390930F0380930E03909311038093AB
:10535000100390931303809312039093150380938B
:105360001403909317038093160390E080E00E944B
:10537000682F893E9E4F21F00E94BD1B0E942F186E
:1053800046E050E06CE170E08BEE93E00E94502F1D
:105390008091EB038C7F11F40E942F180E9456110C
:1053A000811102C00E94F22C87E391E09093A60342
:1053B0008093A503B8E12B2E312CFF24F394809128
:1053C000DC0300E112E1853009F4F1C10E944718C5
:1053D00081110E946804AFE1B3E0E7EEF2E010E073
:1053E00000E0A02EB1908D918B1509F406C28B259B
:1053F000D12CCC24C394982F9C2109F4F9C10E948C
:105400005611BC20882399F0DF82A88681E0B11074
:1054100001C080E089870E9474048160782F9B8797
:105420008A874F81588569858B850E94A926F80156
:10543000E15EFC4F8081C826C082BB2089F085E0F8
:10544000809FF001819FF00D1124ED56FE4FED0D70
:10545000F11D8081B12C8F3F19F0E82EBB24B3944D
:105460000B2D10E08091EF02800F912F911D099775
:105470006CF1E8E0CE2ED12CC01AD10AB8016051EF
:105480007D4FA60180EF92E00E94472FB80168503F
:105490007D4FA60188EF92E00E94472FA601440F9E
:1054A000551FB801660F771F685F7C4F88E093E057
:1054B0000E94472FB80160507D4FA60180E093E025
:1054C0000E94472F88E08B198093EF028091EF02B2
:1054D00090E0AE2DB0E09D01220F331F25543E4FCA
:1054E000AA0FBB1FBD0164547E4F41E0480F9B15BE
:1054F00008F469C18093EF02609118037091190359
:1055000080911A0390911B030E9494114B015C013E
:105510000E947911AB01BC01409318035093190309
:1055200060931A0370931B03A091EF02EFEEF2E079
:10553000BA2FD12C44244A94542C612C712C481835
:1055400059086A087B08AD116FC1B093EF028091D2
:105550001C0381117CC19091EB03892F837019F09A
:10556000892F8695869590914401913009F487C1E1
:10557000992309F46EC1923009F484C1933009F47F
:1055800084C186E0EEE2F3E0DE01119601900D9217
:105590008A95E1F7D0903003C09031031091320327
:1055A00000913303109230031092310310923203B2
:1055B000109233038D2D8C2909F448C080912C035F
:1055C00090912D030E9459049C01909128039923E6
:1055D00009F4A2C121313105C8F19F3F19F09F5F45
:1055E00090932803DD2059F00E944D0A9FEF1D146F
:1055F0000CF491E0899F802D112480933003CC20FE
:1056000059F00E944D0A9FEF1C140CF491E0899F01
:10561000802D112480933103309130033323B1F076
:1056200020913103222391F045EB3403C001112472
:10563000992309F44BC19093300345EB2403900167
:105640001124332309F445C130933103812F802B7A
:1056500009F448C080912A0390912B030E945904B9
:105660009C0190912703992309F452C125363105F5
:10567000C8F19F3F19F09F5F90932703112359F0C2
:105680000E942B0A9FEF11160CF491E0899F802D48
:10569000112480933203002359F00E942B0A9FEFBC
:1056A00010160CF491E0899F802D11248093330310
:1056B000309132033323B1F020913303222391F050
:1056C00005EB3003C0011124992309F405C190931F
:1056D000320315EB210390011124332309F4FFC099
:1056E000309333038091300390913103892B909153
:1056F0003203892B90913303892B11F00E948B097F
:1057000086E0FE013196AEE2B3E001900D928A95FB
:10571000E1F70E94B51190911D03891709F44FCE4E
:105720000E94B51180931D034ACE8091DC03843022
:1057300009F42EC080911C03811105C00E944615FA
:1057400080E00E948805B1E0B0931C031092AD0385
:10575000E0E40FB6F894A895209260000FBEE093A5
:10576000600083B7817F846083BF83B7816083BF1C
:105770007894889583B78E7F83BF0FB6F894A895E9
:1057800080916000886180936000109260000FBE7D
:105790008091DB03882359F00E944718E7EEF2E07E
:1057A000819181119FC022E0EF3EF207C9F78091FD
:1057B000DC03853009F4B9CF0E94421C0E94B51168
:1057C00010921C0303CE90E0FC01E151FD4FD90182
:1057D0005C915183DB015C915187E18A880F991FAD
:1057E000FC01E151FD4F128E118E91E0842F7DCE90
:1057F000D394CC0C25E0D212FECD0F5F1F4F0830A2
:10580000110509F0EECD8FEF8C878D871E860E94E3
:1058100074048160782F988B8F874C855D856E85A9
:1058200088890E94A92668CE818D928D8C0130E0F6
:1058300020E0401651066206730620F4B150D3945E
:10584000329681CE880D991D928F818FF8CF80E09E
:105850008ACE109245014093E7035093E80360938A
:10586000E9037093EA0389E2EFEEF2E0A1EFB3E01F
:1058700001900D928A95E1F7F092440182CE0E9448
:1058800046157FCE0E9488057CCE8091E603882352
:1058900041F046E050E06CE170E08BEE93E00E9456
:1058A0006E2F1092E6036091E7037091E8038091F8
:1058B000E9039091EA030E9494116031710581051A
:1058C000910508F45ECE109244015BCEF092300355
:1058D000B4CEF0923103BACEF0923203FACEF09207
:1058E000330300CF09BD19BD09B400FEFDCF80917F
:1058F000D8008F7D8093D8008091E00082608093F3
:10590000E0008091E00081FDFCCF0E94421C4FCF5F
:10591000232B09F0B0CEE6CE232B09F060CE96CE35
:105920008EE1489B02C08150E1F7489BFECF08956D
:10593000589880E28A95F1F7589A0895FC013BE067
:105940003A95F1F798E020E080E031E040E14A95B7
:10595000F1F7880F489B02C08160232742E04A95F7
:10596000F1F7000040E14A95F1F7915079F790E1A5
:105970009A95F1F799B132E03A95F1F7000040E1DC
:105980004A95F1F7917092272081920F90830895A4
:10599000EF92FF920F931F93CF93DF930F92CDB7A8
:1059A000DEB719828C017C01E60EF11C0E151F0575
:1059B00061F481E09981911180E00F90DF91CF91A6
:1059C0001F910F91FF90EF9008950E94902CCE01AF
:1059D00001960E949E2CF80181938F01E7CF509A87
:1059E000589A08955098589AE89AE9E6F0E080812C
:1059F0008C7F808308956150770B91E001C0990FEF
:105A00006A95EAF720E031E0911108C0222391F075
:105A1000589A80E28A95F1F758980895492F4823BB
:105A200039F0589A232740E24A95F1F79695ECCF42
:105A30005898F9CF5898EDCFFF920F931F93CF93BB
:105A4000DF93EC018C01060F111DC017D10731F453
:105A5000DF91CF911F910F91FF900895F9900E94CF
:105A6000982C68E08F2D0E94FB2CEFCF1F920F9295
:105A70000FB60F921124EF92FF920F931F932F9363
:105A80003F934F935F936F937F938F939F93AF93C6
:105A9000BF93EF93FF93CF93DF930F92CDB7DEB712
:105AA00019820E94902CCE0101960E949E2CA82F54
:105AB000A695A695A695282F229525709A2F9570C4
:105AC000290F922F937026952695920F98279770FD
:105AD0008981982B09F075C0A63008F072C080E16A
