:100000000C94FE020C9442030C945D030C94420386
:100010000C9442030C9442030C9442030C9442034C
:100020000C9442030C943F1E0C946B110C944203ED
:100030000C9442030C9442030C9442030C9442032C
:100040000C9442030C9442030C9442030C9442031C
:100050000C944203130012000C00180017002F002C
:1000600030001C00150008001A00140033780F64DB
:100070000E720D710A00310034000B000961076235
:1000800016640468270026002500240022002D00A5
:100090002E002300210020001F001E0038003774AE
:1000A00036001000050000000000110019000600D5
:1000B0001B741D004B004E004C0028412A42490091
:1000C0004C002C432B4129004D004A000000000049
:1000D0000000000000000000000000000000000020
:1000E0000000000039004F005200510000000000E5
:1000F00000005000E000E100E200E300000000002A
:1001000000000000000000000000000000000000EF
:100110000000000049004D004B004E0000000000B0
:1001200000004A0000000000E6000000000000009F
:10013000000000004C00000000002900000000004A
:1001400000000000000000000000000000000000AF
:100150000000000000000000000000000000F000AF
:10016000ED00EE00000000000000EF00E000E10004
:10017000E200E30045004400000000000000000031
:100180000000000000000000000000000000FC0073
:10019000F900FA001C0100000000FB001901060133
:1001A0001B011D01000000000000F2000000000023
:1001B0000000F1000000000000000000005C0000F2
:1001C00000000000350000000000000030002F009B
:1001D00030022F02E300E200E100E00035020000FF
:1001E000000000002D022D003402340043004200C4
:1001F000410040003E00000000003F003D003C0088
:100200003B003A000000E600000000000000000093
:10021000000000002E002E0231023100000000001C
:1002200000000000000000000000000000000000CE
:100230000000000000047F3F1F6432146432147811
:100240003C1E1E140A05000101010101010101010A
:100250000202020202020202020303030303030377
:100260000304040404040404050505050506060644
:100270000606070707070708080808090909090A01
:100280000A0A0B0B0B0C0C0C0D0D0D0E0E0E0F0FA6
:100290000F10101111111212131314141515161634
:1002A0001717181819191A1A1B1B1C1D1D1E1E1FA3
:1002B0002020212222232424252626272829292AF2
:1002C0002B2C2D2D2E2F303132323334353637381A
:1002D000393A3B3C3D3E3F40414243444546474816
:1002E000494A4C4D4E4F50515354555658595A5BEC
:1002F0005D5E5F616264656668696B6C6D6F70728C
:10030000737577787A7B7D7E8082838587888A8CF7
:100310008E8F91939596989A9C9EA0A2A3A5A7A92B
:10032000ABADAFB1B3B5B7BABCBEC0C2C4C6C9CB22
:10033000CDCFD1D4D6D8DBDDDFE2E4E7E9EBEEF0D8
:10034000F3F5F8FAFDFFFFAA7F5540222325262862
:10035000292A2C2D2F3032333536383A3B3D3E405A
:1003600042434547494A4C4E5051535557595A5CA0
:100370005E6062646668696B6D6F71737577797BB7
:100380007D7F81838587898A8C8E90929496989AB6
:100390009C9E9FA1A3A5A7A8AAACAEAFB1B3B4B6CB
:1003A000B8B9BBBCBEBFC1C2C3C5C6C7C9CACBCC26
:1003B000CDCED0D1D2D2D3D4D5D6D7D7D8D9D9DAF9
:1003C000DADBDBDBDCDCDCDCDCDDDDDDDDDCDCDC6E
:1003D000DCDCDBDBDBDADAD9D9D8D7D7D6D5D4D396
:1003E000D2D2D1D0CECDCCCBCAC9C7C6C5C3C2C16B
:1003F000BFBEBCBBB9B8B6B4B3B1AFAEACAAA8A7C8
:10040000A5A3A19F9E9C9A98969492908E8C8A897F
:10041000878583817F7D7B79777573716F6D6B695C
:1004200068666462605E5C5A5957555351504E4C31
:100430004A4947454342403E3D3B3A3836353332E0
:10044000302F2D2C2A2928262523220000000000E9
:1004500000000000000001010203040506080A0C68
:100460000F1114181C2024292E33393F464C535B9E
:10047000626A7179818A929AA2AAB2B9C1C8CFD5AB
:10048000DCE1E7EBF0F4F7FAFCFDFEFFFEFDFCFA21
:10049000F7F4F0EBE7E1DCD5CFC8C1B9B2AAA29A74
:1004A000928A8179716A625B534C463F39332E29B7
:1004B00024201C1814110F0C0A080605040302015D
:1004C000010000000000000000000005010902A179
:1004D0000185020901A10005091901290815002556
:1004E0000195087501810205010930093115812541
:1004F0007F95027508810609381581257F9501755C
:10050000088106050C0A38021581257F95017508BA
:100510008106C0C005010980A101850319012AB720
:1005200000150126B700950175108100C0050C0962
:1005300001A101850419012AA002150126A0029536
:100540000175108100C005010906A101050719E028
:1005500029E71500250195087501810295017508A7
:1005600081030507190029FF150026FF0095067570
:100570000881000508190129059505750191029565
:100580000175039103C00A034A004A003500300098
:10059000000016034B0050007200650070007500EB
:1005A00062006C0069006300000004030904090292
:1005B0003B00020100A0FA09040000010301010050
:1005C0000921010100012240000705810308000103
:1005D00009040100010300000009210101000122BA
:1005E0007B000705830308000112011001000000D1
:1005F00008504B50000002010200010011241FBEF0
:10060000CFE5D8E0DEBFCDBF04B603FE24C08091A5
:10061000BB029091BC02A091BD02B091BE02873096
:10062000904BA740B04BB9F41092BB021092BC02A1
:100630001092BD021092BE0214BE84B7877F84BFA1
:100640000FB6F894A89581B5886181BD11BC0FBE25
:10065000E0E0F8E3099522E0A2EEB0E001C01D92CF
:10066000AB3BB207E1F710E0A0E6B0E0EEE4F8E45F
:1006700002C005900D92A23EB107D9F70E94A01EBC
:100680000C9404240C940000A82FB92F80E090E073
:1006900041E050EA609530E009C02D91822797959E
:1006A000879510F084279527305EC8F36F5FA8F315
:1006B0000895EADF8D939D930895CF93CFB7CF939D
:1006C000C395839BE9F7839B0EC0839B0CC0839BE0
:1006D0000AC0839B08C0839B06C0C0919502C39546
:1006E000C0939502A6C0DF93C0919402DD27C75640
:1006F000DD4F839B02C0DF91E6CF2F930F931F93B3
:1007000000B32FEF03FB20F94F933F9310B34FEF4C
:10071000012703FB21F93BE031C04E7F012F10B3CD
:10072000216028C0102F4D7F2260000000B329C037
:100730004B7F2460012F000010B32BC010B3477F04
:1007400028602AC04F7E00B320612CC04F7D10B3BB
:1007500020622FC04F7B00B3206432C0422700B319
:1007600049934FEF0000102713FB20F910B31C70C2
:10077000C9F1297F91F2012703FB21F900B3237FFF
:1007800089F2315058F1102713FB22F910B3277E5C
:1007900079F2012703FB23F92F7C81F200B31027A4
:1007A00013FB24F92F7971F200C010B3012703FB6A
:1007B00025F92F7359F200C000B3102713FB26F957
:1007C000223040F200C010B3012703FB27F9243088
:1007D00028F64F77206810B30000F9CF10E81ABF51
:1007E00000271CC03B503195C31BD04010E81ABFF6
:1007F0000881033C11F10B3401F12091920219811F
:10080000110F1213EDCF4A81441F093669F10D32E1
:1008100011F0013E29F74F7009F0042F0093980260
:100820003F914F911F910F912F91DF91CAB7C7FD53
:1008300047CFCF91CFBFCF91189520919802222317
:1008400079F310919602112309F044C034300AF470
:1008500043C03093960220939302109194023BE0A0
:10086000311B3093940238C000919602013094F508
:100870000AE54F7049F43091790034FD2FC00093A0
:100880007900CFE6D2E02EC0433059F0443091F0E9
:1008900030917A0234FD22C000937A02CBE7D2E095
:1008A00021C03091AF0234FD19C00093AF02C0EBFC
:1008B000D2E018C03091860234FD10C00093860249
:1008C000C7E8D2E00FC02795A8F45150A9F4220F31
:1008D0000000F9CF4AE503C042ED01C0432FC4E157
:1008E000D0E032E011B31C60939A11BB02B320E454
:1008F0001CE05F93012756E002BB279520F451507E
:1009000021F4220FF9CF012756E000003B5A02BB29
:10091000D0F2279528F4515029F4220F0000F9CF86
:10092000012756E0279502BB20F4515021F4220FF5
:10093000F9CF012756E02991332302BB21F6037F2B
:1009400010919702110FC651D04002BB11F01093C5
:10095000920210E81ABF086011B3137F402F437F43
:100960005F9100C000C002BB11BB42BB59CF8430B5
:1009700028E6920731F08333984719F088EC90E02D
:1009800008958EE591E00895FC019381933059F12B
:1009900030F49130C1F09230F1F080E0089591325E
:1009A00009F440C09232C9F784819581009709F417
:1009B0004AC0019791F78BEC94E090936E0280937C
:1009C0006D028BE7089589EE95E090936E02809317
:1009D0006D0282E108958EEA95E090936E02809315
:1009E0006D028BE3089582818130A1F0882351F05C
:1009F000823099F686E895E090936E0280936D02BE
:100A00008AE008958AEA95E090936E0280936D02E1
:100A100084E0089582E995E090936E0280936D02E0
:100A200086E108958281882331F0813009F0B5CFC5
:100A300089ED95E002C080EC95E090936E02809382
:100A40006D0289E0089586E495E090936E028093AC
:100A50006D0280E408958091680208959C01FC0174
:100A600032969FEF80E04191461751F09F3F19F475
:100A7000411101C0982F8F5F8630A9F79F3F09F47D
:100A80000895290F311D97FD3A95F9016283089564
:100A90002091CF013091D0012817390771F0909340
:100AA000D0018093CF01E091CD01F091CE0130973C
:100AB00021F00084F185E02D099408952091CB0167
:100AC0003091CC012817390771F09093CC018093B5
:100AD000CB01E091CD01F091CE01309721F006805D
:100AE000F781E02D09940895E091CD01F091CE01B8
:100AF000309721F00190F081E02D099480E0089575
:100B0000CF92DF92EF92FF928C3724E1920750F45C
:100B100069E070E00E94EB22CB01FF90EF90DF9044
:100B2000CF900895B0E0A0E0BC01CD016A50774DB0
:100B30008F4F9F4F982F872F762F662725EF38E20C
:100B400041E050E00E94D32369017A01CA01B90152
:100B50000E94FF229B01AC01C701B6010E94FF2247
:100B6000672F782F892F99276115710521E082075A
:100B7000910591F66FEF7FEFCFCF8D30C0F48111EB
:100B800017C09FB59F7D9FBD9498282F30E0AFEF91
:100B9000BFEF0E94F5232CE030E040E050E00E94DF
:100BA000D323C9010E94800599BD88BD08958CE0BA
:100BB0009FB590629FBDE9CFFA01811101C0FB0191
:100BC000099408958091BF01982F9E7F29F4817028
:100BD00082608093BF0108958A34E8F3817088644D
:100BE000F8CFAF92BF92DF92EF92FF920F931F93D5
:100BF000CF93DF93082F162FE901E42FF0E0EA5B93
:100C0000FD4F611110C0E4915E2F4E2F4983E883A0
:100C10005A83DF91CF911F910F91FF90EF90DF905A
:100C2000BF90AF900895E62EF12C4491D42EE42F7E
:100C3000F0E026E0829FC00111242FEF30E0B901DF
:100C40000E94EB22802F90E0880F991F55E5569F58
:100C5000D001579FB00D11248A1B9B0B982F990F21
:100C6000890F5901AE18BF08AE9ED001AF9EB00DDE
:100C7000BE9EB00D11245B2F189F80011124012FFF
:100C800011275901A01AB10AAE9E8001AF9E100D26
:100C9000BE9E100D11245901A81AB108AE9CC001C6
:100CA000AF9C900DBE9C900D1124892F9927281B75
:100CB000390B2E9FC0012F9F900D3E9F900D112448
:100CC000E92F62307105A1F050F46115710509F446
:100CD0009DCF6130710581F0EB2F512F97CF64309C
:100CE000710569F080F06630710509F48FCFF4CF9B
:100CF000E42F4B2F592F8ACFE42F412F87CFEB2F93
:100D0000542F492F83CF4B2F5D2DE12F7FCF409163
:100D10008B018D3E59F480918C0187FF0DC010929C
:100D20008C0141110BC01092830108C08E3E81F4EA
:100D300080918C0118169CF3442381F080918D01E1
:100D400090918E01892B09F05AC01092820108956A
:100D50008F3E49F447FFF0CF10928B0180918C01B8
:100D60008111ECCFE0CF803F19F41416ACF3E4CF3F
:100D700090918D01893F29F41916F4F610928D0196
:100D8000DBCF8A3F19F497FFD7CFF8CF90918E0130
:100D90008B3F29F497FFD0CF10928E01CDCF8C3F9F
:100DA00019F41916CCF3C8CF9FE0980F983090F43F
:100DB000815F990B21E030E0B90102C0660F771F17
:100DC0008A95E2F7CB01809590918A0189238093DF
:100DD0008A01B2CF8D3F31F4809184018E7F809360
:100DE0008401AACF8E3F21F4809184018D7FF7CFBB
:100DF0008F3F09F0A1CF809184018B7FF0CF0895C0
:100E00008091840180FD16C081FD16C082FD16C050
:100E1000809182018823A1F0883280F428E0829FAB
:100E2000C001112468E270E00E941D23862F672B09
:100E300039F0089582E0089584E0089588E00895E7
:100E400081E008958091840180FD17C081FD17C065
:100E500082FD17C0209183012223A9F08EE1203466
:100E6000A0F4289F9001112486E0359527958A9556
:100E7000E1F7822F232B51F0089587E008958FE04A
:100E800008958EE1089585E00895089581E008951C
:100E90008D3E31F40E942207819580938C01089544
:100EA0008E3E19F40E942207F8CF8F3E31F40E9443
:100EB0002207819580938B010895803F19F40E9449
:100EC0002207F8CF893F29F40E94000780938D0103
:100ED00008958A3F21F40E9400078195F7CF8B3F48
:100EE00031F40E940007819580938E0108958C3F14
:100EF00019F40E940007F8CF9FE0980F983070F423
:100F0000815F990B21E030E001C0220F8A95EAF75A
:100F100080918A01822B80938A0108958D3F31F45C
:100F20008091840181608093840108958E3F21F433
:100F3000809184018260F7CF8F3FB9F7809184015F
:100F40008460F1CF80E00895F894E82FE295EF7087
:100F5000F0E031A9282F2F7081E090E001C0880FC8
:100F60002A95EAF7982F9095932391AB92A9892B14
:100F700082AB7894089590915D0192FF06C0282F6E
:100F800028712830F9F4877F846093FF06C0282FEA
:100F900028712831F1F4877E846120915E0120FF61
:100FA00006C0382F38713830D9F4877F816021FF2F
:100FB00006C0282F28712831D1F4877E816194FDE5
:100FC000877E0895282F24712430F9F68B7F88605E
:100FD000DCCF282F2471243101F78B7E8861DDCF8F
:100FE000382F3171313019F78E7F8860E0CF282F8C
:100FF0002171213121F78E7E8861E1CFCF93DF937C
:10100000EC0182389105A9F1D8F58133910509F4F5
:1010100096C048F58932910509F48AC08A9709F487
:1010200095C0C11521E5D20708F0BCC0C11530E557
:10103000D30708F014C1C83ED10508F09CC0C03EDB
:10104000D10560F5C83AD10508F087C0C53AD10589
:1010500008F0FDC0C130D10509F12097F9F0C43086
:10106000D105E0F440C08533910509F45AC0C99711
:10107000C1F680915D01837089F0C0EED0E00EC0B2
:10108000833E910599F170F4803E910501F1823E15
:10109000910539F680915D0182FD21C0CE01DF917D
:1010A000CF910895863E910561F1873E910571F1DA
:1010B000843E910509F0B5CF80915E0181FFEECFAE
:1010C00080915D01C7EED0E084FD0DC0E7CF809137
:1010D0005D0180FD12C190915E0190FFDFCFC3EEF4
:1010E000D0E084FFDBCFD0E0C0E0D8CF80915D01BD
:1010F00082FD06C190915E0190FDBFCF84FFCECFEF
:10110000F2CF80915D0183FDDDCFC8CF80915D017D
:1011100083FDF9C090915E0191FFF0CFC4EED0E065
:10112000BDCF80915D0185FFB9CFC9E2D0E0B6CFD8
:1011300080915D0185FFB2CFC5E3D0E0AFCF809154
:101140005D0186FFABCFCAE2D0E0A8CF80915D0100
:1011500086FFA4CFC1E3D0E0A1CFCF3BD10518F6E5
:10116000C85AD0E0CC0FDD1FC358DF4F0990D8819B
:10117000C02DD46493CFC11540E2D40758F4C115F3
:1011800081E0D80708F08ACFCD3ED10508F4ABCF77
:10119000D06584CFC11590E4D90708F4A4CFDF70DF
:1011A000D06A7CCFC11525E5D20700F5C11534E51D
:1011B000D30708F08AC0C11543E5D40708F071C011
:1011C000C11582E5D80708F467C0CE01837099275E
:1011D00021E030E002C0220F331F8A95E2F7C69566
:1011E000C69580E2C89FE001112452C0C11599E55F
:1011F000D907A8F4C11528E5D20708F06BC0C115BE
:1012000036E5D30708F06FCF8C2F0E94BB07C82F9D
:10121000D0E0DC2FCC27CC27DF71D0623FCFC115C7
:101220004AE5D40708F45BC0CE0190568115904280
:1012300008F059CF8D2F8F710E94BB0790E0982F37
:10124000882788279F719C012C2BE901E6CFC55A7E
:10125000D0E0C658DF4FC881D0E0D0641FCFCE01A8
:10126000E4E096958795EA95E1F783702C2F269513
:101270002695237040E2249F90011124382B8C2F57
:101280008370C1E0D0E002C0CC0FDD1F8A95E2F789
:10129000C22BD32BDC6802CFDC2FCC27C16FD06AE6
:1012A000FDCECE018370992721E030E002C0220FED
:1012B000331F8A95E2F7C695C69590E2C99FE00173
:1012C0001124C22BD32BDA68E9CEDC2FCC27C46FD4
:1012D000D06AE4CEDC2FCC27C06FD06ADFCE8C2F53
:1012E0008F700E94BB0734E0D695C7953A95E1F719
:1012F000CF709C2FEC01D069D1CEC9E3D0E0CECE27
:10130000C2EED0E0CBCEC6EED0E0C8CE8091510187
:1013100081111092510108958091500190914F01D7
:10132000892B90914E01892B8093E400909151017B
:10133000992391F0892B8093E40020E086EE90E0E1
:10134000FC013191CF0131112F5FF0E08C3E9F07FE
:10135000B9F721110E948609E091CD01F091CE01EB
:10136000309731F00280F381E02D84EE90E0099413
:10137000089520914C0190911B0156E0291302C061
:1013800080E0089530E0529FF001539FF00D11244A
:10139000E45EFE4F7181761306C07081781303C03E
:1013A0007281741304C02F5F3F4F2770E7CF81E035
:1013B0000895452B39F0682381E06F3F09F080E004
:1013C0008170089581E0FCCF80914C0190911B01C8
:1013D000981301C008958F5F8770FACFAF92BF92C4
:1013E000CF92DF92EF92FF920F931F93CF93DF93F1
:1013F000C0905901D0905A01E0905B01F0905C01DF
:1014000040915201509153016091540170915501E6
:10141000C42AD52AE62AF72ACFE1D0E0082F10E027
:101420002CE0929F000D111D11249CE3A92EBC2ECF
:10143000D701C6010C2E04C0B695A7959795879540
:101440000A94D2F780FD0FC0219788F7B12C8B2D1D
:10145000DF91CF911F910F91FF90EF90DF90CF9090
:10146000BF90AF900895AC9EF001AD9EF00D112499
:10147000E00FF11FEE0FFF1FEC5AFF4F8591949183
:101480000E94FE07019701F3E2CFCF93DF93EC01B7
:101490000E94EE09EC2FF0E09CE0D99FE00DF11DD9
:1014A00011249CE3899FE00DF11D1124EE0FFF1F15
:1014B000EC5AFF4F85919491DF91CF910C94FE07E8
:1014C0002CE0929F800D1124982F97708695869519
:1014D000869525E0829FF0011124E351FF4F50E0F3
:1014E00040E080E0219130E0092E02C0369527953A
:1014F0000A94E2F721703327042E01C0220F0A94C8
:10150000EAF7822B4F5F5F4F4530510559F7089539
:101510002CE0929F800D1124982F977041E001C01C
:10152000440F9A95EAF786958695869595E0899F6A
:10153000F0011124E351FF4F90E080E070E0519101
:10154000DF0111979B01082E02C0369527950A945A
:10155000E2F7217021952527242325272C93019636
:101560008530910561F70895FC01808191810E9489
:10157000450A292F2F7092959F7092509E3078F4D3
:10158000E92FF0E0EA5FFB4D0C943123803F19F026
:1015900020F4883E20F481E00895843FE1F380E068
:1015A0000895883EC0F3813FD1F7F5CF822F86950D
:1015B000869586950895882341F0809590915001F5
:1015C0008923809350010C948C090895882339F065
:1015D00090915001982B909350010C948C09089590
:1015E0008091D101882319F080E00C94BD05089505
:1015F0001F93CF93DF9300D000D00F92CDB7DEB70B
:1016000025E0FC01DE01119601900D922A95E1F78B
:10161000FC01228189819A81222331F1662321F103
:101620000E94EE09182F682F89819A810E94880AEA
:101630008A81E981F0E09CE0899FE00DF11D112491
:101640008CE3189FE00DF11D1124EE0FFF1FEC5AE3
:10165000FF4F859194910F900F900F900F900F90E6
:10166000DF91CF911F9108950E94600A182FE0CF5B
:10167000CF93DF9380919602835087FD67C090914E
:101680009402CCE0D0E0C91BD109C756DD4F909140
:101690009302903108F458C09D3209F0F4C08830AC
:1016A00009F052C083EC80936F028AE58093790041
:1016B00010926C028881807609F497C0803229F5F7
:1016C0008981813099F48C819D81892BF1F48FE59A
:1016D00092E090936E0280936D0288E09F81911159
:1016E00031C09E81981770F5892F2CC0823041F44B
:1016F0008EE592E090936E0280936D0281E0EECFD2
:101700008A3029F48B8180935E0280E0E7CF8930B4
:10171000E1F78A819B818115924069F48C819D81DA
:10172000892B49F481E080936B028E819F81909395
:101730006A0280936902888187FFA3C08E8190E846
:1017400090936C02809378001092960280917900B9
:1017500084FF3EC0809178008F3FD1F1C82F89303F
:1017600008F0C8E0982F9C1B9093780090916F022E
:1017700028E8922790936F028823E9F080916D0208
:1017800090916E0220916C0226FF99C0FC012C2FD3
:10179000A0E7B2E034913D9331962150D9F79C01F6
:1017A0002F5F3F4F8FEF8C0F820F932F911D9093E0
:1017B0006E0280936D026C2F80E792E00E945903C5
:1017C000CC5FCC3019F08FEF80937800C093790014
:1017D00084E190B39C7031F48150D9F71092970254
:1017E00010929202DF91CF9108952A81109278028F
:1017F000998191110AC01092790228E732E082E0C3
:1018000030936E0220936D0269CF953029F42093B6
:10181000970228E732E0F4CF9630C9F49B819130EB
:1018200051F4CE010E94C40490E490936C028F3F67
:1018300009F481CF53CF9230A1F3933091F39132D9
:1018400081F3923271F390E490936C0247CF983019
:1018500089F0993019F420936702DBCF9A3071F048
:101860009B30B9F69BE490937B029093B0029093E7
:101870008702CFCF27E632E081E0C2CF28E732E00F
:10188000FBCF8FEF5CCF80916C0287FF5DCF8091A3
:10189000690290916A02892B71F080916B0281300C
:1018A00051F488818093680210926A021092690252
:1018B0001092780049CF8EE18093790045CFDC010A
:1018C0002C2FE0E7F2E03D9131932150E1F767CF13
:1018D0001F93CF93DF93E82F792F162FEA0188818A
:1018E00084FF1CC0298188E828272983CE0102961D
:1018F000DC012E2F372F512F5E0FF90121912D93EF
:101900009F01452F4E1B1416C4F3612F0E945903EB
:101910001C5F1883DF91CF911F9108958AE588831A
:10192000E5CF2091AF0224FF05C04FEA52E066E008
:101930000C94680C089590915D02981307C0209153
:101940005B0230915C0226173707B9F080935D0285
:1019500070935C0260935B028093580270935A020A
:10196000609359028091AF0284FF07C04FEA52E0B2
:1019700063E088E592E00C94680C0895BC0184E073
:101980000C949B0CBC0183E00C949B0CCF93DF93D5
:10199000CAE0D0E080917A0284FF1CC08091560298
:1019A00090915702981799F028E0829FC001112466
:1019B0004AE752E068E08A529E4F0E94680C80918C
:1019C000560290E001968F70992780935602DF911E
:1019D000CF9108950E94380B87EB9BE00197F1F7B8
:1019E00000C000002197B1F6F2CFCF93DF93EC0156
:1019F000A0915702B0E0CD0101968F7099272091F8
:101A00005602281779F093E0AA0FBB1F9A95E1F7C9
:101A1000AA52BE4F98E0FE0101900D929A95E1F70F
:101A2000809357020E94380B0E94C60C88E0FE018A
:101A3000AFE5B2E001900D928A95E1F7DF91CF9189
:101A4000089560E081E090E00E94A32387E090EB9E
:101A5000DC018093BB029093BC02A093BD02B093C3
:101A6000BE0288E19CE00FB6F894A89581BD0FBE38
:101A700091BDFFCF682F86E090E00C948023CF9338
:101A8000C0915E01C2FB992790F9981781F080FB05
:101A9000C2F9C0935E0160915D0184E090E00E9414
:101AA00080236C2F82E290E0CF910C948023CF9121
:101AB0000895CF9384E090E00E946C23C82F82E2C7
:101AC00090E00E946C23982F8C2FCF9108958091E5
:101AD000BF0180FD0AC0EBE9F1E0118210821282A1
:101AE000339681E0EF3BF807C1F7809197018111B0
:101AF00005C00E94192281E08093970124E630E01E
:101B000044E250E06BE971E080EB0C94C522EF9267
:101B1000FF920F931F93CF93DF938C01CBE9D1E01A
:101B2000F12CE12CF80194816091C1018091C001F8
:101B3000F6E0EF16F104FCF49923F9F09E014091D0
:101B4000C2010E94F1052FEFE21AF20A23968CE0FF
:101B5000E816F10439F70E94670DF801848190E0DE
:101B60000196817099278483DF91CF911F910F9106
:101B7000FF90EF900895992309F39E0140E0E1CF93
:101B80008F929F92AF92BF92CF92DF92EF92FF928D
:101B90000F931F93CF93DF93EC014C81042F10E040
:101BA0009801D8010E94F5239B01AC010E94C0233B
:101BB0004B015C01E0E2F0E0E01BF10BA5E5B0E0D9
:101BC000AC019B010E94C0236B017C019F01DF01DE
:101BD0000E9437239B01AC010E94CB239B01AC01E7
:101BE000280D391D4A1D5B1DC701B6010E94D32374
:101BF000F22E822F90E039E23F15D8F143E0249F86
:101C00009001112435952795122F10959BE9C92E27
:101C100091E0D92E00E085E5E82EEF188E2D01FD2C
:101C20008F2D9601412F6091C1010E94F1050F5F38
:101C300053E0C50ED11C0C3089F70E94670D9C81C2
:101C400081E0992319F0903219F48FEF8093770097
:101C500080917700890F8C83DF91CF911F910F9135
:101C6000FF90EF90DF90CF90BF90AF909F908F90BC
:101C7000089525E530E0A901481B590BCA019A01D6
:101C8000220F331F280F391F37FFBCCF2F5F3F4F65
:101C9000B9CF0F931F93CF93DF93CBE9D1E0FE0130
:101CA000118210821282339681E0EF3BF807C1F770
:101CB00010E000E080919901082E000C990B0817A4
:101CC00019078CF180917600082E000C990B801773
:101CD00091074CF19E014091C2016091C101809138
:101CE000C0010E94F1050F5F1F4F23960C301105B4
:101CF00009F70E94670D8091750090919901980FE6
:101D00009093990120917600280F20937600121667
:101D100014F49B301CF0819580937500DF91CF9176
:101D20001F910F910895198218821A82DCCFBF92F9
:101D3000CF92DF92EF92FF920F931F93CF93DF9397
:101D4000FC018281DD24DA9480FD02C0DD24D3947D
:101D50000BE911E0D0E0C0E02CE0B22EF8011182D6
:101D60001082128294E0E92EF12CC12C809198010E
:101D70008C0D8D300CF43DC06B2D0E940F23892FEC
:101D8000082E000C990B8C179D0791F48091C201CD
:101D90008E9DA0018F9D500D112455954795559509
:101DA000479598016091C1018091C0010E94F105A1
:101DB000CD0CF1E0EF1AF108C9F621960D5F1F4F27
:101DC000CC30D10559F60E94670D8091980191E0C1
:101DD000D91215C0811111C08BE080939801DF9159
:101DE000CF911F910F91FF90EF90DF90CF90BF9018
:101DF000089587FFC5CF845FC3CF8150EECF90E0B9
:101E00000196BE010E941D23E8CFEF92FF921F931F
:101E1000CF93DF93EC018BE9E82E81E0F82E10E000
:101E20008C8197014091C2016091C101810F0E9494
:101E3000F1051B5E83E0E80EF11C1C3F89F70E9450
:101E4000670D9A818C8190FF08C08F5F8C83DF9132
:101E5000CF911F91FF90EF9008958150F7CF90910F
:101E6000BF0190FF0CC0EBE9F1E081836083428306
:101E7000339691E0EF3BF907C1F70C94670D089595
:101E80000F931F93CF93DF9300D00F92CDB7DEB7A0
:101E90008C0180919A0181110AC09E012F5F3F4FF2
:101EA0004FEF6FEF0E94F1058A8180939A01F8014C
:101EB0006481613069F080919A0140E0662361F0AD
:101EC00040E0623011F440919A0180E060E004C08B
:101ED00060919A0140E080E00E942F0FF801848118
:101EE00090E0019663E070E00E941D2384830F90D0
:101EF0000F900F90DF91CF911F910F910895CF9385
:101F0000DF9300D00F92CDB7DEB79091BF0190FF65
:101F10000AC09E012F5F3F4F0E94F1054B816981EE
:101F20008A810E942F0F0F900F900F90DF91CF9119
:101F30000895CF93DF93EC01EFEBF1E043816281F1
:101F40008C810E947F0F8C818F5F8C83DF91CF917A
:101F50000895CF93DF93EC01EC81F0E0E55BFC4F5B
:101F60004491EFEBF1E0628181810E947F0F8C81CF
:101F70008F5F8C83DF91CF910895CF92DF92EF92A4
:101F8000FF926B017C010E94E205B701A60188E087
:101F900090E0FF90EF90DF90CF900C9491235F92B0
:101FA0006F927F928F929F92AF92BF92CF92DF9269
:101FB000EF92FF920F931F93CF93DF9300D00F9276
:101FC000CDB7DEB7182F762E042F622E9091BF0169
:101FD00090FF29C0E92FE695AE2FB0E0A454BF4F83
:101FE0008C91809395019E7F923081F59E012F5FA9
:101FF0003F4F812F0E94F1054B8169818A810E94A8
:102000002F0F1093C0017092C1010093C20166208E
:1020100051F06091BF017091C0018091C101909118
:10202000C2010E94BD0F0F900F900F90DF91CF91D2
:102030001F910F91FF90EF90DF90CF90BF90AF90E6
:102040009F908F907F906F905F900895823019F4E9
:102050000091C201D6CF863019F41091C001D1CFC2
:102060008930D9F3893169F6E9518E2F8170582E64
:10207000E695F0E0EA5BFC4FA590B490BB248BE9B9
:10208000E82E81E0F82ED12CC12C9CE0892E912CD9
:10209000C601B4010E94EB22812F511013C0860F9C
:1020A0009701402F672D0E94F105CA0CDB1C83E0CD
:1020B000E80EF11C8FEBE81681E0F80649F70E9464
:1020C000670D9FCF861BECCFEFEBF1E0438122E160
:1020D000421B08F440E021E0628181810C94CF0F23
:1020E000EFEBF1E0438122E1420F08F44FEF21E0F2
:1020F000628181810C94CF0FEFEBF1E062812FE0E0
:10210000621B08F460E021E0438181810C94CF0FD1
:10211000EFEBF1E062812FE0620F08F46FEF21E056
:10212000438181810C94CF0FEFEBF1E0818121E0BD
:10213000438162818C500C94CF0FEFEBF1E08181F1
:1021400021E043816281845F0C94CF0F8091C301B1
:10215000882319F081508093C3016091BF01709171
:10216000C0018091C1019091C2010C94BD0F80917A
:10217000C301833018F48F5F8093C3016091BF0166
:102180007091C0018091C1019091C2010C94BD0F6A
:10219000EFEBF1E083E0808311828FEF8283838312
:1021A000148260817181828193810C94BD0F69EEEC
:1021B0007EEF90E080E00E949D2360E082E090E06E
:1021C0000E94802360E083E090E00E9480231092D0
:1021D000520110925301109254011092550160E087
:1021E00084E090E00E94802360E082E290E00E9420
:1021F000802360E085E090E00E94802360E086E03C
:1022000090E00E9480236FEF87E090E00E9480239F
:1022100040E050E0BA0188E090E00E94912360E045
:102220008DE090E00E94802340E050E0BA0188E118
:1022300090E00E94912360E087E190E00E9480237B
:1022400040E050E0BA018CE190E00E94912370E000
:1022500060E080E290E00E949D2340E050E0BA01FF
:1022600088E190E00E94912340E050E0BA018FE0C5
:1022700090E00E94912340E050E0BA0183E190E0B9
:102280000C94912390E080E00E947A23893E9E4F37
:1022900051F00E94D7108091C401847081668093B0
:1022A000C4010E943A0D86E090E00E946C23809366
:1022B000C401883620F0877080668093C4019091B5
:1022C000C401892F817090FF04C0892F869586955F
:1022D00086950C94BD0578941F921FB61F92112409
:1022E0008F939F93AF93BF938091D2019091D3012D
:1022F000A091D401B091D5010196A11DB11D80938B
:10230000D2019093D301A093D401B093D501BF9192
:10231000AF919F918F911F901FBE1F9018959C01A8
:102320004FB7F8948091D2019091D301A091D4013C
:10233000B091D5014FBF821B930B08952FB7F8942E
:102340008091D2019091D301A091D401B091D50197
:102350002FBF08959091BF0190FF3DC091708111F2
:1023600029C092609093BF01662351F06091BF0134
:102370007091C0018091C1019091C2010E94BD0F76
:102380006091BF01669570E04BE050E08AE690E016
:102390000E945223892BA9F01092960181E080932C
:1023A000920120E04091C2016091C1018091C00181
:1023B0000C94CF0F853210F09864D4CF880F982BEF
:1023C000D1CF81E0809396010E949E11909390015D
:1023D00080938F01E3CF08958091BF01869581504E
:1023E00009F484E261E00C94AA118091BF01869502
:1023F0008F5F853208F081E061E00C94AA11909122
:10240000BF0190FF07C09695981720F0961710F41B
:102410000C94F51161E00C94AA110E949E119C018C
:1024200090918B0180918C01982B21F03093880141
:102430002093870190918D0180918E01982B21F03E
:102440003093860120938501E091CD01F091CE017A
:10245000309749F082E0809389010480F581E02D76
:1024600089E891E00994089590E080E00E945E057B
:1024700090E080E00E94480510924F0110924E01BA
:102480000E948C0986E0E9E8F1E0DF011D928A955F
:10249000E9F71092830110928201109284010C944A
:1024A0000D126093590170935A0180935B019093D0
:1024B0005C010C9434120F931F9341E050E060E0F4
:1024C00070E004C0440F551F661F771F8A95D2F72E
:1024D000CB01BA0160957095809590950091590156
:1024E00010915A0120915B0130915C0160237123AE
:1024F000822393231F910F910C94511290914D01BF
:102500008095892380934D01282F277039F4282F37
:10251000082E000C330B9217130621F490915E01E4
:1025200092FF07C08595859585950E945B12109254
:102530004D0108950F931F9341E050E060E070E07B
:1025400004C0440F551F661F771F8A95D2F78091EC
:10255000590190915A01A0915B01B0915C018A01EF
:102560009B01082B192B2A2B3B2BC901B8011F916A
:102570000F910C9451126093520170935301809308
:102580005401909355010C94341210925001E6EED0
:10259000F0E086E0DF011D928A95E9F70C94341291
:1025A0008823F1F19CEF980F913A78F4E6EEF0E091
:1025B0002CEE30E09191891303C0DF0111971C923A
:1025C0002E173F07B9F70C948C0990E2980F9830BA
:1025D00088F4877021E030E0A90102C0440F551F44
:1025E0008A95E2F7CA0180959091500189238093E2
:1025F0005001E9CF9BE5980F933020F490E080E004
:102600000C945E0598E5980F973120F490E080E0F7
:102610000C9448058D3E20F00E9487060C940D1204
:102620000895CF93C82F882309F456C08CEF8C0FE0
:10263000813AF8F4E6EEF0E08CEE90E0DF012D91C7
:10264000C21759F08A179B07D1F76C2F84EE90E0E0
:102650000E942E05CF910C948C092191C21303C0C6
:10266000DF0111971C928E179F07B9F70E948C0902
:10267000ECCF80E28C0F883068F4C77021E030E046
:1026800001C0220FCA95EAF780915001822B8093F6
:102690005001E0CFEBE5EC0FE33040F4F0E0E6581A
:1026A000FF4F808190E0CF910C945E05E8E5EC0F40
:1026B000E73150F4F0E0EE0FFF1FE358FF4F808149
:1026C0009181CF910C944805CD3E30F08C2F0E9423
:1026D0004807CF910C940D12CF910895CF92DF92BD
:1026E000EF92FF920F931F93CF93DF936B01C42F51
:1026F000D22FFC0182818823C1F04093CA010E943D
:102700009E119093C9018093C801C77081E001C0F8
:10271000880FCA95EAF7DF91CF911F910F91FF9033
:10272000EF90DF90CF900C94E60A1091CA01141339
:1027300040C08091C8019091C9010E948F117C0115
:10274000C6010E94B704E816F90698F5C0E2CD0F5D
:102750001D17B9F080E2810F883040F4177081E0D6
:1027600001C0880F1A95EAF70E94DB0AC83048F4C6
:1027700081E09D2F977001C0880F9A95EAF70E941B
:10278000E60A802F0E941113802F0E94D012C830B9
:10279000B8F4D77081E001C0880FDA95EAF7DF91CD
:1027A000CF911F910F91FF90EF90DF90CF900C94FD
:1027B000DB0AC77081E001C0880FCA95EAF7EFCF46
:1027C000DF91CF911F910F91FF90EF90DF90CF900D
:1027D00008953F924F925F926F927F928F929F9255
:1027E000AF92BF92CF92DF92EF92FF920F931F931F
:1027F000CF93DF937C01FC0143815481618180810F
:102800000E94D909382E811159C661E0C7010E9482
:10281000F80AEC01F7018281882309F412C6FE014F
:10282000EC5BFC45E730F10508F09DC5EC5EFB4D27
:102830000C9431238091C401877080668093C40119
:10284000887F91E009F490E08091C40190FB80F9C9
:102850008093C4018CE00E94BD058091C4010E9458
:102860003A0D80914D01877009F428C6F7018281E5
:10287000882309F423C682E0DF91CF911F910F9145
:10288000FF90EF90DF90CF90BF90AF909F908F9090
:102890007F906F905F904F903F900C947E1280914C
:1028A000C40187708E7F8093C40180E0D4CF809173
:1028B000C401982F987F79F088508093C401887F55
:1028C00091E009F490E08091C40190FB80F980933D
:1028D000C4010E943A0D8091C40186958695869523
:1028E0001EC08091C401982F9695969596959C3020
:1028F00040F49F5F990F990F990F8770892B8093F0
:10290000C4018091C4018160E2CF8091C40180FF45
:1029100009C08E7F8093C4010E943A0D80E00E941E
:10292000BD059FCF80FD9DCF81608093C401813024
:1029300019F489E08093C4018091C401CACF9091B9
:10294000C401892F8695869586958F5F8F719770C4
:102950008D3048F4880F880F880F892B8093C4012D
:102960008091C401ACCF9093C401FACF8091C4018F
:1029700081FF09C08D7F8093C4010E943A0D89B701
:102980008B7F89BFA8CF81FD6CCF82608093C4010B
:102990000E943A0D1092C7011092C6011092C50113
:1029A00089B7846089BF5DCF07E225EE45EE69ED0A
:1029B0007CE5F2C406E221EE40EE64EF7CE5ECC477
:1029C00007E225EE44EE65EF7CE5E6C406E221EE83
:1029D00042EE66EF7CE5E0C408E221E045EE6AEDF8
:1029E0007CE5DAC480915D018061C6309CE5D90741
:1029F00009F48CC080915D018860C730DC4508F423
:102A000085C080915D01806281C080915D018D7F74
:102A1000CC30FCE5DF0709F479C070F480915D01EA
:102A20008C60CA303CE5D30709F470C008F481C05B
:102A300080915D018E7F6AC080915D01877FCE307D
:102A40009CE5D90709F462C080915D018B7FCF308E
:102A5000DC4508F45BC080915D018F7E57C0CC3FA0
:102A6000FCE5DF0709F45DC030F5C3313CE5D30771
:102A700009F46DC078F4C1319CE5D90709F463C04D
:102A8000C231DC4509F0CDC40E94C51280915D01C0
:102A90008F773CC0C531FCE5DF0709F460C008F45E
:102AA00074C080915E018160CB3FDC4509F0B9C400
:102AB00080935E01B6C4C1158DE5D80709F44BC0FB
:102AC00088F480915E018D7FCE3FECE5DE0781F3D7
:102AD00080915E018E7FCF3FDC4550F380915E0197
:102AE0008360E6CFC2302DE5D20709F457C008F461
:102AF00042C060E0C330DD4509F093C48EE090E051
:102B00000E9480238EC480915D01816080935D016D
:102B100088C480915D018260F9CF80915D018460FD
:102B2000F5CF80915E018260C3CF80915D018064AA
:102B3000EDCF0E94C51280915D018068E7CF809142
:102B40005D018F7DE3CF80915D018F7BDFCF809131
:102B50005D01837FDBCF80915E018C7FA9CF809167
:102B60005D0182FB992790F921E0922790FB82F981
:102B700090FB83F9CBCF80915E01982F9095917057
:102B80008E7F892B90FB81F993CF0E94C512909183
:102B90005D01892F97FB87F98058B8CF61E0AECFF0
:102BA00080915001C6319CE5D90709F0F4C28A7AB8
:102BB00091E009F490E09093EC0069E2811165E303
:102BC00084EE90E00E942E050E948C094ACE85E397
:102BD00056C48091BF0180FF1BC08E7F8093BF01D0
:102BE0006091BF017091C0018091C1019091C201BB
:102BF0000E94BD0F10929601EFEBF4ED21E0E15041
:102C0000F0402040E1F700C000000E94670D29CE8F
:102C100081608093BF0161E086950E94AA1121CE58
:102C20004CEE51E165EF71E10E94DC051ACE45EFF3
:102C300051E16CEE71E1F8CF4DE950E164E970E1EA
:102C4000F3CF4CE750E168E870E1EECF44E650E1A5
:102C500060E770E1E9CF40E750E164E670E1E4CF7E
:102C600047EB50E166EA70E1DFCF61E081E0D5CF6C
:102C700065E082E00E94FF11F4CD68E086E0FACFC3
:102C800064E18FE0F7CF67E185E1F4CF62E289E1AB
:102C9000F1CF61E083E2C1CFCC35FDE5DF0701F183
:102CA000CD35DD4509F0A2C280915E0182FB882707
:102CB00080F991E089270E943F0D98C20E94C512B9
:102CC0003FEB87E299E0315080409040E1F700C04F
:102CD00000000E94210D0E94D710C3CD81E0EBCFF0
:102CE00080E0E9CFCE010E94600A082F8EC22C2F0F
:102CF0002F70C22EC07F19F0C29490EFC92200231A
:102D0000C9F0CC2069F080E28D0F883010F01111ED
:102D10000BC080915001C82AC09250010E948C09BA
:102D20008D2F0E94111318C080914F01C82AC092A4
:102D30004F01F4CF8D2F0E94D012CC2069F0C094A7
:102D4000D05ED83010F011113BC080915001C822E4
:102D5000C09250010E948C092D2D2850330B243035
:102D6000310510F40E9474053320A9F080914D01C3
:102D700080FD11C0F70112828595859585950E9489
:102D80009A12C7010E94E91380914D01859585959E
:102D900085950E945B1260E0C701DF91CF911F9182
:102DA0000F91FF90EF90DF90CF90BF90AF909F90EA
:102DB0008F907F906F905F904F903F900C94F80AA7
:102DC00080914F01C822C0924F01C4CF3C2F3F7069
:102DD000B32EC07FC03219F0B29480EFB822112315
:102DE00039F0113051F10023A9F1CC2061F198CFD5
:102DF0000023B1F0909151018B2D892BC11003C09C
:102E00000E94E60AA9CFE1E0CE12FACF20915E013E
:102E100022FDA2CF981709F49FCF809351019CCF38
:102E2000C11006C00E9486098B2D0E94DB0A94CF38
:102E3000F1E0CF1609F490CFF5CF002331F025E073
:102E40002C1508F489CF8B2DDBCF34E03C1508F42A
:102E500083CFEACFCC2041F3193349F48FEF9DEEB5
:102E6000E2E081509040E040E1F700C000008D2F8B
:102E70000E94D01271CF8C2F86958695837069F051
:102E8000813009F069CF8D2F9C2F9370011102C002
:102E900090E080E00E9448055FCF8D2F9C2F9370BB
:102EA000011102C090E080E00E945E0555CF8D2F99
:102EB000002329F00E9448070E940D124DCF0E9466
:102EC0008706FACF8C2F837009F065C0011144CFBB
:102ED0008D2F829586958770880F880F6D2F6F7064
:102EE000862E912CB12CA12C082E04C0880C991C84
:102EF000AA1CBB1C0A94D2F740E050E0BA01D4FFF0
:102F00000FC04FE050E060E070E004C0440F551F78
:102F1000661F771F8A95D2F74095509560957095FA
:102F2000C695C695C370C23019F1D8F440905201CD
:102F3000509053016090540170905501C13069F078
:102F4000482959296A297B29CB01BA0164217521B5
:102F5000862197210E94BB12FFCE84289528A6289F
:102F6000B728CB01BA01682979298A299B29F2CF90
:102F7000482959296A297B29809052019090530150
:102F8000A0905401B0905501CB01BA016825792574
:102F90008A259B25DFCF8695002311F08C2F817029
:102FA000882309F4D9CE8D2F829586958770880F56
:102FB000880F6D2F6F70862E912CB12CA12C082EAE
:102FC00004C0880C991CAA1CBB1C0A94D2F740E0D0
:102FD00050E0BA01D4FF0FC04FE050E060E070E075
:102FE00004C0440F551F661F771F8A95D2F740957E
:102FF000509560957095C695C695C370C23019F10D
:10300000D8F44090590150905A0160905B01709043
:103010005C01C13069F0482959296A297B29CB0113
:10302000BA0164217521862197210E94511294CE04
:1030300084289528A628B728CB01BA0168297929C0
:103040008A299B29F2CF482959296A297B2980900E
:10305000590190905A01A0905B01B0905C01CB01A6
:10306000BA01682579258A259B25DFCFCF700023FB
:1030700029F08C2F0E949A128D2FC2CE8D2F0E9484
:10308000DB0A8C2F0E945B1267CE8D2F123F09F452
:103090004FC068F4103F21F1113F09F441C00023F3
:1030A00009F469C0C1103CCE8C2F8F713EC0133F14
:1030B00009F443C0143F99F7002309F451C0CF71BC
:1030C0008C2F0E949A1280915E0182FD07C038E029
:1030D000C39FC0011124836080934D018C2F25C0B4
:1030E0000023C9F0F4E0FC1508F436CECF7161E09E
:1030F00070E080E090E004C0660F771F881F991F82
:10310000CA95D2F78090590190905A01A0905B0126
:10311000B0905C01A6CF25E02C1508F41DCEE6CFBB
:103120008C2F8F71002309F4ADCF0E949A1214CE18
:103130008C2F8F710023C9F3A5CF60E070E0CB0125
:10314000002309F472CFCF7161E070E080E090E07D
:1031500004C0660F771F881F991FCA95D2F765CFE5
:1031600081E00E947E1281E08C1508F0F5CD82E0AE
:103170000E947E12F1CDCC2059F0893309F077CE30
:103180009FEFEDEEF2E09150E040F040E1F76DCEC0
:103190008C2F8F7177CF8272CD3C2CE5D20709F44A
:1031A0005FCD08F0A8C0C73C9CE5D90709F444CD21
:1031B00008F07DC0C43CFCE5DF0709F431CD08F020
:1031C00067C0C33C3CE5D30709F403CDCB353DE5EF
:1031D000D30709F483CD08F05FCDC1159CE5D9076D
:1031E00009F46CCDCF3DDC4509F475CDF701828142
:1031F000C081D181882309F475CDCE010E94EE09EA
:10320000082F682FCE010E94880AEC2FF0E02CE0F6
:10321000D29FE00DF11D11243CE3039FE00DF11D51
:103220001124EE0FFF1FEC5AFF4F859194910E94DD
:10323000FE07D82FC92F182FF7010281C580C2942D
:103240004FE0C42280914D018770A1F0002389F0E6
:10325000892F807F803421F080E28D0F883050F0FC
:1032600082E00E947E1280914D0187703324339456
:103270008111312CDC2ED2942FE0D222FBE0FD15FF
:1032800008F46ACDED2DF0E0E55EFB4D0C943123A2
:10329000C53C9CE5D90709F4CACC44E950E16DE985
:1032A00070E1C63CECE5DE0709F4BECC8FCFCA3C2A
:1032B000FCE5DF0709F4CACC78F4C83C3CE5D30749
:1032C00009F4BFCC48E850E16CE770E1C93C9CE5EB
:1032D000D90709F4A9CC7ACFCB3CECE5DE0709F499
:1032E000BACC46EA50E167EB70E1CC3CFCE5DF0785
:1032F00009F49ACC6BCFC23D2CE5D20709F4C0CCBF
:10330000A0F4CF3C8CE5D80709F4B2CC08F4ADCCDE
:10331000C03DECE5DE0709F4B0CC6EE089E0C13DCC
:10332000FCE5DF0709F4A6CC51CFC53D2CE5D2075B
:1033300009F4ACCC68F4C33D8CE5D80709F4A3CC00
:1033400061E088E1C43D9CE5D90709F466CC3ECF35
:10335000C63DECE5DE0709F49CCCCE35FDE5DF0784
:1033600009F47FCA33CFC43F2CE5D20709F422CB3E
:10337000B8F4C93D8CE5D80709F416CBCA3D9CE5E5
:10338000D90709F429CBC83DECE5DE07A9F406E22C
:1033900021EE41EE68ED7CE5C7010E946E1361CA23
:1033A000C63FFCE5DF0709F411CB08F409CBC73FA2
:1033B0003CE5D30709F47CC01092CA01C230FCE599
:1033C000DF0708F4EDCBC6312CE5D20730F0CE0193
:1033D0008B5F9C45099708F0E3CB0E94590D9093B1
:1033E0005E0180935D01C0313CE5D30709F4A7CBB2
:1033F00008F035CBC8309CE5D90709F496CB08F026
:1034000004CBC430FCE5DF0709F487CB08F0EACA37
:10341000C2303CE5D30709F476CBC330DC4509F470
:1034200078CB60915D01C0915E0184E090E00E94E4
:1034300080236C2F82E290E00E9480230E94C512BC
:1034400010CAC43F8CE5D80709F4B4CA30F5C93DA9
:10345000ECE5DE0709F4A8CACA3DFCE5DF0709F47C
:10346000BBCAC83D2CE5D20709F491CFC631DC4573
:1034700009F0BCCE8091EC008111A9CB89E2E6EE87
:10348000F0E02CEE30E09191891303C0DF01119739
:103490001C922E173F07B9F797CBC63F3CE5D307E1
:1034A00009F494CA08F48CCAC73F9CE5D907F1F621
:1034B00007E225EE46EE67EF7CE56ECFDF91CF9118
:1034C0001F910F91FF90EF90DF90CF90BF90AF9042
:1034D0009F908F907F906F905F904F903F90089556
:1034E000BF92CF92DF92EF92FF920F931F93CF93F1
:1034F000DF9380911A01807F61F480911701882306
:1035000041F0C0914C0186E0B82E80911B018C13D4
:103510000AC0DF91CF911F910F91FF90EF90DF9044
:10352000CF90BF900895F0901501E0901601C090E3
:103530001801D0901901A6016E2D8F2D0E94D90976
:10354000D0E081113BC0BC9E8001BD9E100D1124B6
:10355000F801E45EFE4F81818E1130C080818F11B1
:103560002DC0828181112AC0E380F480EC18FD080F
:1035700060E085E191E00E94F80A0E94B704E81635
:10358000F906E0F480911A018F70806180931A012E
:10359000F801EF5DFE4F80818F708061808385E14F
:1035A00091E00E94E913DF91CF911F910F91FF905D
:1035B000EF90DF90CF90BF900C94E4092196C770F4
:1035C000A4CF5F926F927F928F929F92AF92BF92A1
:1035D000CF92DF92EF92FF920F931F93CF93DF93DF
:1035E000CDB7DEB761970FB6F894DEBF0FBECDBF83
:1035F0008C0185E0F801DE011D9601900D928A95FF
:10360000E1F7D8011296EC9085E1A82E81E0B82E62
:103610008090180190901901A40160911601809189
:1036200015010E94D90981118EC1F801C380D4808F
:10363000F0901701C601881999094C01FF2009F47F
:103640003EC15080618060E0C5010E94F80A0E947E
:10365000B70470901A018816990608F0F2C04091DC
:10366000180150911901B0901501A0901601872DF5
:10367000807F6A2D09F09DC08B2D0E94D909FE2CF8
:1036800081112FC0D80111968C9111978A1129C0F0
:103690008C918B1126C0E11024C0872D8F70806122
:1036A00080931A0185E191E00E94E91380911A014B
:1036B000F80185838F2D61960FB6F894DEBF0FBE9B
:1036C000CDBFDF91CF911F910F91FF90EF90DF90D1
:1036D000CF90BF90AF909F908F907F906F905F90B2
:1036E000089560E085E191E00E94F80A0E94B70425
:1036F0005C01A601662D852D0E94D909D82EF4EF14
:10370000AF16F1E0BF06D0F081E08E25D11080E049
:1037100080FF14C04E2D662D852D0E94B909882387
:1037200069F085E191E00E94E91386E0E5E1F1E0CE
:10373000DF011D928A95E9F7F12CBCCF81E08E253F
:10374000D11080E0B82FB170CB2E80FF29C04E2D54
:10375000662D852D0E94B909D82E811121C05D8664
:103760006E868D859E850E94450A292F22952F7091
:10377000223050F0243078F49F7051F0F801958198
:10378000907F31F4FD2C96CF9F7011F08823D1F3F8
:10379000805E8830B8F3C8010E94E913DC2CF2CFB8
:1037A000EE2009F487CF80911A01816080931A017D
:1037B000C3CF8B2D0E94D909811119C0D801119650
:1037C0008C9111978A1113C08C918B1110C0E1104C
:1037D0000EC015967C92C8010E94E91386E0F8019C
:1037E000A5E1B1E001900D928A95E1F763CFC801A0
:1037F0000E94B40A882309F1EE20F9F080911A01A1
:10380000803270F0209115013091160138872F8396
:103810001986DB86CA868C87CE0107960E94E9133B
:1038200086E0F801A5E1B1E001900D928A95E1F7FB
:103830000E94701AFF24F3943DCFC8010E94E9133F
:10384000F9CF872D807F09F46CCF9090150180907F
:1038500016014091180150911901682D892D0E947F
:10386000D909811113C0F801818188110FC08081AD
:1038700089110CC0E1100AC07582C8010E94E913C9
:1038800086E0D5011D928A95E9F714CFC8010E9400
:10389000B40A882391F2EE2081F280911A018032DD
:1038A00008F4BECF20911501309116013A83298387
:1038B0001B82DD82CC828E83CE010196AFCF60E089
:1038C00085E191E00E94F80A0E94B70488169906E3
:1038D000B8F6FE2CEE2009F4B0CFE0901501D090A0
:1038E000160140911801509119016D2D8E2D0E94E5
:1038F000D90981111AC0F80181818D1116C080810A
:103900008E1113C080911A0180FD68CF982F907F8F
:1039100009F464CF8583903F09F45DCF982F907FA1
:10392000905F8F70892B858356CFC8010E94B40A9F
:10393000811176CF80911A01816080931A01C801AC
:103940000E94E913B7CEEE2009F477CFC8010E9498
:10395000B40AF82E882309F470CF86E0F801A5E1B7
:10396000B1E001900D928A95E1F780911501909157
:1039700016010E94450A0E94701A9CCE1F93CF9395
:10398000DF93CDB7DEB767970FB6F894DEBF0FBEF3
:10399000CDBF4B8B5C8B6D8B7E8B8F8B61111092AF
:1039A0004F011A8A198A85E0FE017396DE011D9681
:1039B00001900D928A95E1F786E0FE013D96DE01C9
:1039C000179601900D928A95E1F7CE0107960E9415
:1039D000E11A811111C086E0FE013796DE011196D1
:1039E00001900D928A95E1F74A855B8568858F8104
:1039F0000E94D909882389F016E080914C019091AA
:103A00001B01891337C067960FB6F894DEBF0FBE4F
:103A1000CDBFDF91CF911F91089520911B0130E020
:103A2000C90101968770992740914C0148171906E2
:103A300099F096E0929FD001939FB00D1124A45E5F
:103A4000BE4FFE01319601900D929A95E1F7809359
:103A50001B010E94E409D0CF0E94C51210921B01E5
:103A600010924C0186E0E5E1F1E0DF011D928A95BC
:103A7000E9F7C2CF819FC0011124845E9E4F0E944E
:103A8000E11A882309F4BFCF80914C0190E00196A0
:103A90008770992780934C01B0CF6F927F928F925D
:103AA0009F92AF92BF92CF92DF92EF92FF920F93CD
:103AB0001F93CF93DF93CDB7DEB72A970FB6F89455
:103AC000DEBF0FBECDBF8E010F5F1F4F8AE0F80132
:103AD00011928A95E9F78BEAE82E80E0F82E6801CA
:103AE00090EB692E90E0792E88248394912CF70135
:103AF00081917F018F3F09F44BC0F894E82FE29544
:103B0000EF70F0E021A98F70A40102C0440F551F8F
:103B10008A95E2F7CA01922F982B91AB92A98095D2
:103B2000892382AB789400C0E0EBF0E030E020E045
:103B3000B12CA12C81918F3F09F484C0A82FA295AC
:103B4000AF70B0E0D0964C9150E08F7002C05595A8
:103B500047958A95E2F740FD75C0C401022E02C068
:103B6000880F991F0A94E2F7A82AB92A2F5F3F4FBE
:103B70002C303105F9F6F701319780818F3F11F034
:103B80000E94A40758E75A95F1F7F601B182A08286
:103B9000F2E0CF0ED11C6E147F0409F0A8CF4AE0EA
:103BA00050E0B8018FE591E00E945F23FF24F39479
:103BB000009709F4F12C892B09F447C08AE0F80139
:103BC000AFE5B1E001900D928A95E1F781E0809335
:103BD00058010E949E119093570180935601809145
:103BE0005601909157010E948F11059790F1809195
:103BF0005F019091600190936B0180936A018091C5
:103C000061019091620190936D0180936C018091AC
:103C100063019091640190936F0180936E01809194
:103C2000650190916601909371018093700180917C
:103C300067019091680190937301809372011092D3
:103C4000580107C090E080E08FCF8091580181112A
:103C5000C6CF8F2D2A960FB6F894DEBF0FBECDBF0C
:103C6000DF91CF911F910F91FF90EF90DF90CF9058
:103C7000BF90AF909F908F907F906F9008951F920C
:103C80000F920FB60F9211242F933F934F935F9390
:103C90006F937F938F939F93AF93BF93EF93FF9314
:103CA0008091C6019091C701019668EB75E00E9472
:103CB000EB229093C7018093C6016BE070E00E94F5
:103CC000EB226F778091C501823031F4603441F48A
:103CD00089B78B7F89BF04C0813011F46F37C1F37E
:103CE000E62FF0E0E55BFB4FE49121E031E0E29F5D
:103CF000C001E39F900D11246CE070E00E94EB2264
:103D00008091C401869586958695282F269FC001AF
:103D1000279F900D11240E94800599BD88BDFF91B9
:103D2000EF91BF91AF919F918F917F916F915F9133
:103D30004F913F912F910F900FBE0F901F901895AC
:103D4000CDB7DEB760970FB6F894DEBF0FBECDBF1C
:103D50000E949E11909381018093800184B78068B6
:103D600084BF84B7806884BF82EA97E09093E300C1
:103D70008093E20085B7886085BF8BB780688BBF72
:103D80008BE480937B028093B002809387028AE564
:103D900080937A028093AF02809386028B9A80E0B0
:103DA000815009F07BC08B9878948BE083BF8BEBBC
:103DB0008CBF82E089BF0BEA10E0F80181918F018E
:103DC0008F3F11F00E94A407F0E0003B1F07A9F706
:103DD00000EB10E0FCEBEF2EF0E0FF2EF8018191FC
:103DE0008F018F3F11F00E94A407E016F106B1F792
:103DF0001092600110925F0110926B0110926A01A3
:103E0000109262011092610110926D0110926C018A
:103E1000109264011092630110926F0110926E0172
:103E2000109266011092650110927101109270015A
:103E30001092680110926701109273011092720142
:103E400090E080E00E947A23893E9E4F11F00E940C
:103E5000D71082E090E00E946C23809375010E944D
:103E6000590D90935E0180935D010E944D1D2FE3DB
:103E700049E181E0215040408040E1F700C000006E
:103E80000E944D1D80916A0180FF10C06FEF7FEF8F
:103E900090E080E00E949D230E94210DA895E7EB11
:103EA000FBE03197F1F700C000007ACF83E090E0AB
:103EB0000E946C23682F70E090E080E00E94BB12AB
:103EC0008C9A949882E28FBD89E18EBD8FEF9FEF2F
:103ED00097BD86BD0E9442118091C40181FF09C037
:103EE0001092C7011092C6011092C50189B7846073
:103EF00089BF0E94421180916901811136C090E012
:103F000080E00E947A23893E9E4F21F00E94D710C4
:103F10000E94C81088E090E00E9474236093BF0163
:103F20007093C0018093C1019093C2016E7F71F4C0
:103F30000E94C81088E090E00E9474236093BF0143
:103F40007093C0018093C1019093C2010E94E20569
:103F5000109296018091BF0180FF04C060E08695B9
:103F60000E94AA1181E08093690180E690E090931D
:103F7000CE018093CD01FFEB24ED41E0F1502040D4
:103F80004040E1F700C00000E4E3EE2EE2E0FE2E48
:103F9000809195021091D101882349F110929502E8
:103FA0000E949E119093810180938001112309F456
:103FB000D7C01092D1010E94C5120E9442110E94E6
:103FC00074058091D101882309F4CAC00E94F00AC7
:103FD0000E944D1DEAE6F1E084E791E021913191E4
:103FE000232B09F09BC08E179F07C1F7D1CF11116A
:103FF000EDCF80918001909181010E948F110697F1
:1040000008F4AEC081E08093D1010E94F00ADECFB7
:104010002F5FCC0CDD1C2C3009F0D1C00F5F1F4F7F
:104020000530110509F0BCC08FEF8C878D871E8687
:104030000E949E118160782F988B8F874C855D85BB
:104040006E8588890E94BE1CE1C0863059F4F0E07C
:10405000E15CFD4FE4910E2F10E079E9C72E7FE07F
:10406000D72EEDC0893061F4E695F0E0E45CFD4FB9
:10407000E4910E2F10E065E0C62E6FE0D62EDFC073
:104080008F3061F4E695F0E0E75CFD4FE4910E2F90
:1040900010E057E9C52E5EE0D52ED1C0853159F428
:1040A000F0E0EA5CFD4FE4910E2F10E049E4C42EED
:1040B0004EE0D42EC4C008E210E090ECC92E9DE082
:1040C000D92E883109F4BBC0833241F4F701059140
:1040D000149130E4C32E3FE0D32EB1C004EF11E0C1
:1040E00027E8C22E2DE0D22E843209F4A8C000EDBC
:1040F00017E081EEC82E85E0D82EA1C081E0809324
:104100008B011EC181E080938C0123C181E08093EB
:104110008D0162C181E080938E0167C1F89421B363
:10412000939A822F8C6081BB92B33CE0932792BB21
:104130008FE59AEEE0E081509040E040E1F700C06A
:10414000000082B3832782BB21BB9398789420CF51
:10415000232B09F013C149C1232B09F0C3C0F9C0B7
:104160000E94380B80916702882309F45FC1809117
:104170007A0284FF5BC10E944D1D882359F08FB7DE
:10418000F8944091D2015091D3016091D401709183
:10419000D5018FBFAAE6B1E0E6E7F1E010E000E06C
:1041A000602F8D919D91419151914817590709F4C4
:1041B00035CF4827592720E0CC24C394D12C5A016D
:1041C000AC20BD20AB2809F423CF2F8368879C0146
:1041D0002C213D2191E0232B09F490E099870E9446
:1041E0009E118160782F9B878A874F8158856985CA
:1041F0008B850E94BE1C000F111FF801EA58FE4F6C
:1042000080819181C826D926D182C0828091960171
:104210008823D1F180919501E091BF01E695E81BDB
:10422000E0939101823009F010CFF0E0EE5BFD4F9A
:10423000E4910E2F10E0E9EACE2EEFE0DE2E809121
:104240009201882361F0109292010E949E11909336
:10425000900180938F0110929401109293010E941B
:104260009E11E0918F01F09190018E1B9F0B8F3F6B
:104270009F4750F4E00FF11FF0939001E0938F01FE
:104280008FE891E0F601099586E0E9E8F1E0DE01CA
:10429000119601900D928A95E1F7D0908B01C09014
:1042A0008C0110918D0100918E0110928B01109262
:1042B0008C0110928D0110928E018D2D8C2909F4A4
:1042C00048C080918701909188010E948F119C01C4
:1042D00090918301992309F43FCF21313105C8F131
:1042E0009F3F19F09F5F90938301DD2059F00E945A
:1042F00022079FEF1D140CF491E0899F802D11245B
:1043000080938B01CC2059F00E9422079FEF1C1450
:104310000CF491E0899F802D112480938C013091C1
:104320008B013323B1F020918C01222391F045EBD6
:104330003403C0011124992309F4E0CE90938B013A
:1043400045EB240390011124332309F4DBCE309391
:104350008C01812F802B09F448C0809185019091B8
:1043600086010E948F119C0190918201992309F48A
:10437000EFCE25363105C8F19F3F19F09F5F90932E
:104380008201112359F00E9400079FEF11160CF4CF
:1043900091E0899F802D112480938D01002359F095
:1043A0000E9400079FEF10160CF491E0899F802D6A
:1043B000112480938E0130918D013323B1F020912F
:1043C0008E01222391F045EB3403C001112499237F
:1043D00009F49CCE90938D0145EB240390011124A8
:1043E000332309F497CE30938E0180918B01909105
:1043F0008C01892B90918D01892B90918E01892BB5
:1044000011F00E940D1286E0FE013196A9E8B1E09C
:1044100001900D928A95E1F70E94740590917401C4
:10442000891721F00E947405809374010E94C60CC4
:10443000AFCD11B887E080B985B3836085BB86B7FF
:10444000846086BF86B7816086BF86B7806486BF7A
:1044500008959F92AF92BF92CF92DF92EF92FF9218
:104460000F931F93CF93DF93B82EEB010E949E1101
:104470006C01EE24E394F12CC431D10560F025E009
:10448000E22EF12CCF3FDC0731F0CE0164E170E089
:104490000E94EB227B0184EAA82E94E8992E16BE96
:1044A000A6BE0E949E118C0106B607FE0BC081B10C
:1044B000887F883031F181B1887F803111F10FEF31
:1044C0001FEF09C00E949E11801B910B8E159F0546
:1044D00058F30EEF1FEFCF3FDC0709F3C6010E9430
:1044E0008F118C179D07D8F2C801DF91CF911F91D2
:1044F0000F91FF90EF90DF90CF90BF90AF909F9083
:104500000895B3B896BE0E949E118C0106B607FEB0
:1045100009C081B1887F883111F0803481F610E0C4
:1045200000E0E2CF0E949E11801B910B8E159F052B
:1045300068F3CFCF0F931F93CF93DF93EB0183B932
:1045400084E886BF0E949E118C0106B607FE10C04B
:1045500021B1287F81E090E0283211F490E080E0E2
:10456000919581959109DF91CF911F910F910895B8
:10457000CF3FDC0751F30E949E11801B910B8C17DB
:104580009D0718F38EEF9FEFEECFCF92DF92EF9261
:10459000FF920F931F93CF93DF936B018A017901F1
:1045A000B9010E942922E6010C0D1D1DC017D1077B
:1045B00059F424E926BFDF91CF911F910F91FF900D
:1045C000EF90DF90CF90089597FDF3CFB7018991D9
:1045D0000E949A22EBCFAA1BBB1B51E107C0AA1F66
:1045E000BB1FA617B70710F0A61BB70B881F991F94
:1045F0005A95A9F780959095BC01CD010895DB01EE
:104600008F939F930E94C023BF91AF91A29F800D73
:10461000911DA39F900DB29F900D1124089587FBCB
:10462000082E062687FD819567FD61950E94462329
:104630000EF4919507FC8195089597FB072E16F4CB
:10464000009407D077FD09D00E94EB2207FC05D02B
:104650003EF4909581959F4F0895709561957F4F99
:104660000895EE0FFF1F0590F491E02D09940E942C
:10467000F523332312F48A1B9B0B0C9441230E94D5
:10468000F523B7FF0895821B930B0895991B79E0DA
:1046900004C0991F961708F0961B881F7A95C9F7D2
:1046A00080950895FC014150504030F0019006166D
:1046B000D1F73197CF010895882799270895FB01F5
:1046C000DC0104C08D910190801921F441505040CB
:1046D000C8F7881B990B0895E199FECF9FBB8EBB4D
:1046E000E09A99278DB30895A6E1B0E044E050E048
:1046F0000C94B223A8E1B0E042E050E00C94B22365
:10470000262FE199FECF9FBB8EBBE09A01970DB299
:10471000021631F02DBB0FB6F894E29AE19A0FBE63
:1047200008950396272F0E9481230E948023252F1E
:104730000E948123242F0C9481230196272F0E940D
:1047400081230C948023262FE199FECF9FBB8EBB43
:104750002DBB0FB6F894E29AE19A0FBE0196089528
:10476000DC01CB01FC01E199FECF06C0FFBBEEBB33
:10477000E09A31960DB20D9241505040B8F708952D
:104780000E94F523A59F900DB49F900DA49F800DCE
:10479000911D11240895B7FF0C94C0230E94C023DB
:1047A000821B930B0895A1E21A2EAA1BBB1BFD01CD
:1047B0000DC0AA1FBB1FEE1FFF1FA217B307E40700
:1047C000F50720F0A21BB30BE40BF50B661F771F58
:1047D000881F991F1A9469F7609570958095909538
:1047E0009B01AC01BD01CF010895A29FB001B39F11
:1047F000C001A39F700D811D1124911DB29F700DEA
:10480000811D1124911D0895F894FFCFC60AC60A90
:10481000CF0ACF0AD10ACF0ACF0ACF0AC60AC60AE0
:10482000D60ACF0ACF0AD60A1A144F145714711495
:1048300085149F14B61477167716E616E6163B17FE
:0E4840005717AC16AC166217361845184518F7
:10484E002B05F50C910CC20CBE0C01191A1B1C1D6C
:10485E001E1F202122010201FF5A818283E200E9FC
:10486E0000EA00B500B600B700CD008301CC008A87
:10487E00019201940121022302240225022602271D
:10488E00022A02B300B4006F0070006061626364BC
:10489E009091929394959697373635340001020293
:1048AE0002020606060909090909090F0F0F0F0F63
:1048BE000F15151518191919191919191919192367
:0248CE002400C4
:00000001FF
